:100000000C9434000C9423050C9423050C942305C4
:100010000C9423050C9423050C9423050C942305C0
:100020000C9423050C9423050C9423050C942305B0
:100030000C9423050C9423050C9423050C942305A0
:100040000C9423050C9423050C9423050C94230590
:100050000C9423050060006E000A54006E006F804F
:10006000006F0073000A620011241FBECFE5D8E0C4
:10007000DEBFCDBFE4E5F0E040E017C0B591A5914B
:1000800035912591059107FD0CC095918591EF0162
:10009000F92FE82F05900D92A217B307D9F7FE01AB
:1000A00004C01D92A217B307E1F7E736F40731F752
:0C00B0000E9421020C940F05F894FFCF71
:1000BC00CF92DF92EF926B01E82E611571058105ED
:1000CC0009F49CC0FB018491E7FC808186958695A0
:1000DC0086958770442309F448C0413009F090C0DC
:1000EC00F6012491E7FC208127702130A1F028F043
:1000FC002230F9F0233059F185C04BB321E030E0C8
:10010C00B90102C0660F771F8A95E2F7CB01842BE9
:10011C008BBB80E07AC048B321E030E0B90102C06B
:10012C00660F771F8A95E2F7CB01842B88BB80E0A2
:10013C006CC045B321E030E0B90102C0660F771FF7
:10014C008A95E2F7CB01842B85BB80E05EC042B37D
:10015C0021E030E0B90102C0660F771F8A95E2F703
:10016C00CB01842B82BB80E050C0F6012491E7FCCC
:10017C00208127702130A9F028F0223009F123309A
:10018C0071F142C04BB321E030E0B90102C0660FFF
:10019C00771F8A95E2F7CB01809584238BBB80E097
:1001AC0034C048B321E030E0B90102C0660F771FBC
:1001BC008A95E2F7CB018095842388BB80E025C02B
:1001CC0045B321E030E0B90102C0660F771F8A9574
:1001DC00E2F7CB018095842385BB80E016C042B347
:1001EC0021E030E0B90102C0660F771F8A95E2F773
:1001FC00CB018095842382BB80E007C081E005C0E1
:10020C0081E003C080E001C080E0EF90DF90CF90F0
:02021C00089543
:10021E009B01482F61157105810509F49FC0FB01F3
:10022E00849147FD80818695869586958770F90124
:10023E00549147FD508156FB662760F956FF45C025
:10024E00613009F08DC0252F27702130A1F028F0E4
:10025E002230F9F0233059F185C04AB321E030E065
:10026E00B90102C0660F771F8A95E2F7CB01842B86
:10027E008ABB80E0089547B321E030E0B90102C0A7
:10028E00660F771F8A95E2F7CB01842B87BB80E040
:10029E00089544B321E030E0B90102C0660F771F24
:1002AE008A95E2F7CB01842B84BB80E0089541B39D
:1002BE0021E030E0B90102C0660F771F8A95E2F7A0
:1002CE00CB01842B81BB80E00895F901249147FD79
:1002DE00208127702130A9F028F0223009F1233037
:1002EE0071F142C04AB321E030E0B90102C0660F9D
:1002FE00771F8A95E2F7CB01809584238ABB80E035
:10030E00089547B321E030E0B90102C0660F771FB0
:10031E008A95E2F7CB018095842387BB80E0089510
:10032E0044B321E030E0B90102C0660F771F8A9511
:10033E00E2F7CB018095842384BB80E0089541B31E
:10034E0021E030E0B90102C0660F771F8A95E2F70F
:10035E00CB018095842381BB80E0089581E00895D0
:0C036E0081E0089580E0089580E008958B
:10037A00CF92DF92EF926B01E82E6115710581052C
:10038A0009F451C0FB018491E7FC8081869586952A
:10039A00869587704115510509F447C0F6012491E5
:1003AA00E7FC208127702130A1F028F02230F9F0F3
:1003BA00233059F13CC029B330E0B90102C0759528
:1003CA0067958A95E2F7CB018170FA01808380E014
:1003DA002FC026B330E0B90102C0759567958A959A
:1003EA00E2F7CB018170FA01808380E021C023B358
:1003FA0030E0B90102C0759567958A95E2F7CB019D
:10040A008170FA01808380E013C020B330E0B90123
:10041A0002C0759567958A95E2F7CB018170FA015A
:10042A00808380E005C081E003C081E001C081E0F3
:08043A00EF90DF90CF900895D0
:100442000E94FC0210926E0068E670E080E84EE6C0
:1004520050E00E94410380916E00813021F40E949D
:10046200BD0310926E0066E670E080E84EE650E052
:100472000E94410380916E00813021F40E94E403C6
:1004820010926E0064E670E080E84EE650E00E9452
:10049200410380916E00813021F40E940B0410927E
:1004A2006E0062E670E080E84EE650E00E94410392
:1004B20080916E00813021F40E94320410926E000D
:1004C20060E670E080E84EE650E00E9441038091D1
:0E04D2006E00813009F0B6CF0E945904B3CFFE
:1004E000CF92DF92EF92CF93DF930F92CDB7DEB72B
:1004F00061157105810591F19B01482FFB019491D4
:1005000047FD908192959F709770F901849147FD06
:100510008081582F57708981887F852B990F990F7B
:10052000990F877C892B80648983F901949147FD19
:10053000908197FB992790F990FB87F98983CE01E9
:1005400001966C0120E8E22E8E2DB6010E94A504D2
:1005500041E08E2DB6010E945E0001C081E00F9047
:0C056000DF91CF91EF90DF90CF900895D5
:10056C00CF92DF92EF92CF93DF930F92CDB7DEB79E
:10057C0061157105810591F19B01482FFB01949147
:10058C0047FD908192959F709770F901849147FD7A
:10059C008081582F57708981887F852B990F990FEF
:1005AC00990F877C892B80648983F901949147FD8D
:1005BC00908197FB992790F990FB87F98983CE015D
:1005CC0001966C0120E8E22E8E2DB6010E94A50446
:1005DC0040E08E2DB6010E945E0001C081E00F90BC
:0C05EC00DF91CF91EF90DF90CF90089549
:1005F800CF936CE670E080E80E948004C82F6AE61A
:1006080070E080E80E948004C82B68E670E080E80B
:100618000E941A05C82B66E670E080E80E941A0559
:10062800C82B64E670E080E80E941A05C82B62E6D1
:1006380070E080E80E941A05C82B60E670E080E848
:100648000E941A05C82B61E770E080E80E948503C4
:10065800C82B62E770E080E80E948503C82B60E73A
:1006680070E080E80E948503C82B6FE670E080E8A0
:0A0678000E9485038C2BCF9108959A
:100682000F931F93CF93DF930F92CDB7DEB7611510
:100692007105810581F14115510579F18A011982AE
:1006A2009B01482F2F5F3F4F4F4FF901949147FD18
:1006B2009081992359F09130D1F4AE014F5F5F4F91
:1006C2000E94BD019981F801908318C0AE014F5F6D
:1006D2005F4F0E94BD019981911104C091E0F80120
:1006E20090830CC0913029F4F801108207C081E098
:1006F20005C081E003C081E001C081E00F90DF917D
:08070200CF911F910F910895A2
:10070A00CF93DF930F92CDB7DEB7611571058105DF
:10071A0051F19B01482FFB01949147FD90819295DD
:10072A009F709770F901849147FD8081582F577007
:10073A008981887F852B990F990F990F877C892B3F
:10074A0080648983F901949147FD908197FB9927E9
:10075A0090F990FB87F98983BE016F5F7F4F80E82C
:10076A000E94A50401C081E00F90DF91CF91089506
:10077A00CF9362E770E080E80E947002C82F61E7B9
:10078A0070E080E80E947002C82B60E770E080E8A1
:10079A000E94B602C82B6FE670E080E80E94B6029B
:1007AA00C82B6CE670E080E80E94C104C82B6AE698
:0E07BA0070E080E80E94C1048C2BCF9108955E
:1007C800CF9361E770E080E80E947002C82F62E76B
:1007D80070E080E80E94B602C82B6FE670E080E8FF
:1007E8000E947002C82B60E770E080E80E94B602A1
:1007F800C82B6AE670E080E80E94F504C82B6CE616
:0E08080070E080E80E94C1048C2BCF9108950F
:10081600CF9361E770E080E80E94B602C82F62E7D6
:1008260070E080E80E94B602C82B6FE670E080E8B0
:100836000E947002C82B60E770E080E80E94700298
:10084600C82B6CE670E080E80E94DB04C82B6AE6E1
:0E08560070E080E80E94DB048C2BCF910895A7
:10086400CF9361E770E080E80E94B602C82F62E788
:1008740070E080E80E947002C82B6FE670E080E8A8
:100884000E94B602C82B60E770E080E80E94700204
:10089400C82B6AE670E080E80E94DB04C82B6CE693
:0E08A40070E080E80E94F5048C2BCF9108953F
:1008B200CF9361E770E080E80E94B602C82F62E73A
:1008C20070E080E80E94B602C82B6FE670E080E814
:1008D2000E94B602C82B60E770E080E80E94B60270
:1008E200C82B6CE670E080E80E94F504C82B6AE62B
:0E08F20070E080E80E94F5048C2BCF910895F1
:10090000CF92DF92EF92611571058105B9F0FB017D
:10091000249187FD2081277030E02430310584F454
:100920006B01E82E8E2DB6010E94A5048E2DB60116
:100930006F5F7F4F8F4F0E94A50403C081E001C00D
:0A09400081E0EF90DF90CF90089562
:10094A00CF92DF92EF9261157105810581F06B01FB
:10095A00E82E0E940F01F6014491E7FC408147FB13
:10096A00442740F98E2DB6010E945E0001C081E045
:08097A00EF90DF90CF9008958B
:10098200CF92DF92EF9261157105810571F06B01D3
:10099200E82E41E00E945E008E2DB6016F5F7F4F10
:1009A2008F4F40E00E945E0001C081E0EF90DF9037
:0409B200CF90089545
:1009B600CF92DF92EF9261157105810571F06B019F
:1009C600E82E40E00E945E008E2DB6016F5F7F4FDD
:1009D6008F4F41E00E945E0001C081E0EF90DF9002
:0409E600CF90089511
:1009EA00CF92DF92EF9261157105810571F06B016B
:1009FA00E82E40E00E945E008E2DB6016F5F7F4FA9
:100A0A008F4F40E00E945E0001C081E0EF90DF90CE
:040A1A00CF900895DC
:100A1E00EC010E9428050E942705CE010E9429059F
:060A2E00CE010E94250527
:100A340061157105810519F00E940F01089581E087
:020A4400089513
:040A46000C9400000C
:040A4A000E945C00AA
:020A4E00089509
:020A5000089507
:020A5200089505
:020A540003019C
:020A56003A0163
:020A5800320169
:020A5A002A016F
:020A5C00220175
:020A5E00525AEA
:020A6000424A08
:010A62004350
:010A6300335F
:010A6400236E
:010A6500137D
:00000001FF
