:100000000C942E000C946D040C946D040C946D04EF
:100010000C946D040C946D040C946D040C946D049C
:100020000C946D040C946D040C946D040C946D048C
:100030000C946D040C946D040C946D040C946D047C
:100040000C946D040C946D040C946D040C946D046C
:100050000C946D040060006C0008E80011241FBEC1
:10006000CFE5D8E0DEBFCDBFE4E5F0E040E017C06B
:10007000B591A59135912591059107FD0CC09591FC
:100080008591EF01F92FE82F05900D92A217B30784
:10009000D9F7FE0104C01D92A217B307E1F7EB35B3
:1000A000F40731F70E9458000C946204F894FFCFD3
:1000B000CF93DF9300D000D00F92CDB7DEB70E9470
:1000C00001048BE690E01C0120E8422E842DB10152
:1000D0000E940F033FE03C8364C088EE93E090935E
:1000E00066008093650052C080E690E06C0140E8B5
:1000F000E42E8C819DEC899F812D11248695869517
:1001000086958983482F8E2DB6010E94D30388E6F9
:1001100090E03C0120E8822E41E0882DB3010E944E
:10012000B00181EE94E00197F1F700C0000040E0DB
:10013000882DB3010E94B0019981990F892F880FF2
:10014000880F980F4C81491B8E2DB6010E94D30356
:1001500087E690E06C0120E8E22E41E08E2DB601AA
:100160000E94B00181EE94E00197F1F700C0000019
:1001700040E08E2DB6010E94B00180916500909103
:1001800066000A97909366008093650080916500F1
:1001900090916600181619060CF4A6CF9C81915018
:1001A0009C832C81211199CF842DB1010E9455038C
:1001B00080E690E01C0130E8432E8C833D82E32EE4
:1001C00040E0842DB1010E94D3034FE986E891E01D
:1001D000415080409040E1F700C000008AE690E086
:1001E0009C0140E829833A834B83842FB9010E9404
:1001F0000F0387E690E0A0E8D82EC92E8A2E41E0B2
:10020000BC018A2F0E94B00188E690E0A0E8782E19
:10021000692E1A2F40E0BC018A2F0E94B00105E030
:100220001CC041E06D2D7C2D882D0E94B00140E066
:10023000672D762D812F0E94B001402F6C817D812A
:100240008E2D0E94D3033FE34DE083E031504040C8
:100250008040E1F700C0000001500111E2CF698148
:100260007A818B810E94550389E690E09C0140E8E9
:1002700029833A834B83842FB9010E940F030F2EE9
:10028000FAE0FF2EF02D56C088EE93E090936600C2
:100290008093650046C00DECF09E012D112406955B
:1002A00006950695402F6C817D818E2D0E94D3038B
:1002B00041E0672D762D812F0E94B00183EC99E0FB
:1002C0000197F1F700C0000040E0672D762D812FE7
:1002D0000E94B001000F802F880F880F080F4F2D4C
:1002E000401B6C817D818E2D0E94D30341E06D2DDA
:1002F0007C2D882D0E94B00183EC99E00197F1F7E5
:1003000000C0000040E06D2D7C2D882D0E94B001C2
:100310008091650090916600449790936600809369
:1003200065008091650090916600181619060CF41E
:10033000B2CFFA94F110A8CF69817A818B810E94A3
:10034000550340E0842DB1010E94D3039FE926E8C4
:1003500031E0915020403040E1F700C00000B1CEC4
:10036000CF92DF92EF926B01E82E61157105810546
:1003700009F49CC0FB018491E7FC808186958695F9
:1003800086958770442309F448C0413009F090C035
:10039000F6012491E7FC208127702130A1F028F09C
:1003A0002230F9F0233059F185C04BB321E030E021
:1003B000B90102C0660F771F8A95E2F7CB01842B43
:1003C0008BBB80E07AC048B321E030E0B90102C0C5
:1003D000660F771F8A95E2F7CB01842B88BB80E0FC
:1003E0006CC045B321E030E0B90102C0660F771F51
:1003F0008A95E2F7CB01842B85BB80E05EC042B3D7
:1004000021E030E0B90102C0660F771F8A95E2F75C
:10041000CB01842B82BB80E050C0F6012491E7FC25
:10042000208127702130A9F028F0223009F12330F3
:1004300071F142C04BB321E030E0B90102C0660F58
:10044000771F8A95E2F7CB01809584238BBB80E0F0
:1004500034C048B321E030E0B90102C0660F771F15
:100460008A95E2F7CB018095842388BB80E025C084
:1004700045B321E030E0B90102C0660F771F8A95CD
:10048000E2F7CB018095842385BB80E016C042B3A0
:1004900021E030E0B90102C0660F771F8A95E2F7CC
:1004A000CB018095842382BB80E007C081E005C03A
:1004B00081E003C080E001C080E0EF90DF90CF904A
:0204C00008959D
:1004C2009B01482F61157105810509F49FC0FB014D
:1004D200849147FD80818695869586958770F9017E
:1004E200549147FD508156FB662760F956FF45C07F
:1004F200613009F08DC0252F27702130A1F028F03E
:100502002230F9F0233059F185C04AB321E030E0BE
:10051200B90102C0660F771F8A95E2F7CB01842BDF
:100522008ABB80E0089547B321E030E0B90102C000
:10053200660F771F8A95E2F7CB01842B87BB80E099
:10054200089544B321E030E0B90102C0660F771F7D
:100552008A95E2F7CB01842B84BB80E0089541B3F6
:1005620021E030E0B90102C0660F771F8A95E2F7F9
:10057200CB01842B81BB80E00895F901249147FDD2
:10058200208127702130A9F028F0223009F1233090
:1005920071F142C04AB321E030E0B90102C0660FF6
:1005A200771F8A95E2F7CB01809584238ABB80E08E
:1005B200089547B321E030E0B90102C0660F771F0A
:1005C2008A95E2F7CB018095842387BB80E008956A
:1005D20044B321E030E0B90102C0660F771F8A956B
:1005E200E2F7CB018095842384BB80E0089541B378
:1005F20021E030E0B90102C0660F771F8A95E2F769
:10060200CB018095842381BB80E0089581E0089529
:0C06120081E0089580E0089580E00895E4
:10061E00CF92DF92EF92CF93DF930F92CDB7DEB7EB
:10062E0061157105810591F19B01482FFB01949194
:10063E0047FD908192959F709770F901849147FDC7
:10064E008081582F57708981887F852B990F990F3C
:10065E00990F877C892B80648983F901949147FDDA
:10066E00908197FB992790F990FB87F98983CE01AA
:10067E0001966C0120E8E22E8E2DB6010E944604F2
:10068E0041E08E2DB6010E94B00101C081E00F90B5
:0C069E00DF91CF91EF90DF90CF90089596
:1006AA00CF92DF92EF92CF93DF930F92CDB7DEB75F
:1006BA0061157105810591F19B01482FFB01949108
:1006CA0047FD908192959F709770F901849147FD3B
:1006DA008081582F57708981887F852B990F990FB0
:1006EA00990F877C892B80648983F901949147FD4E
:1006FA00908197FB992790F990FB87F98983CE011E
:10070A0001966C0120E8E22E8E2DB6010E94460465
:10071A0040E08E2DB6010E94B00101C081E00F9029
:0C072A00DF91CF91EF90DF90CF90089509
:10073600CF93DF930F92CDB7DEB7611571058105B3
:1007460051F19B01482FFB01949147FD90819295B1
:100756009F709770F901849147FD8081582F5770DB
:100766008981887F852B990F990F990F877C892B13
:1007760080648983F901949147FD908197FB9927BD
:1007860090F990FB87F98983BE016F5F7F4F80E800
:100796000E94460401C081E00F90DF91CF91089539
:1007A600CF92DF92EF92CF93DF93611571058105AA
:1007B600E1F04A30E0F4D42F6B01E82EC0E080E08F
:1007C60011C04D2F50E00C2E02C0559547950A9446
:1007D600E2F741708E2DB6016C0F711D811D0E94CE
:1007E600B001CF5FC43068F303C081E001C081E08F
:0C07F600DF91CF91EF90DF90CF9008953D
:10080200CF9360E670E080E80E942804C82F6BE670
:1008120070E080E80E949B03C82B6AE670E080E8E3
:100822000E949B03C82B69E670E080E80E949B034C
:10083200C82B68E670E080E80E944604C82B67E691
:0E08420070E080E80E9446048C2BCF91089550
:10085000CF92DF92EF92CF9361157105810581F000
:100860006B01E82EC0E080E008C08E2DB6016C0F51
:10087000711D811D0E944604CF5FC430B0F301C0DA
:0C08800081E0CF91EF90DF90CF900895C1
:10088C00CF92DF92EF9261157105810581F06B01BA
:10089C00E82E0E946102F6014491E7FC408147FB7F
:1008AC00442740F98E2DB6010E94B00101C081E0B1
:0808BC00EF90DF90CF9008954A
:1008C400EC010E9472040E947104CE010E94730420
:0608D400CE010E946F043A
:0408DA000C9400007A
:0408DE000E9456001E
:0208E200089577
:0208E400089575
:0208E600089573
:0508E800424A525A00D3
:0208ED00E8031E
:0108EF006A9E
:0108F00062A5
:0108F10023E3
:0108F20013F2
:0108F3000301
:00000001FF
