:100000000C9430000C94DC010C9408020C94340223
:100010000C94D2030C94D2030C9480010C945001E4
:100020000C9420010C94F0000C9460020C948C024F
:100030000C94D2030C940F030C94D2030C94380349
:100040000C94B0010C94D2030C94D2030C94D20300
:100050000C94D2030060006D0007B2006D007F8039
:1000600011241FBECFE5D8E0DEBFCDBFE4E5F0E050
:1000700040E017C0B591A59135912591059107FDF7
:100080000CC095918591EF01F92FE82F05900D9205
:10009000A217B307D9F7FE0104C01D92A217B30738
:1000A000E1F7E036F40731F70E94B0030C949C03AB
:0400B000F894FFCFF2
:0A00B40052656365697665720D0000
:1000BE00CF92DF92EF92CF9361157105810509F40E
:1000CE004FC06B01E82E8FB78F778FBF8AB1877FB6
:1000DE008AB98AB18F7E8AB9F6015E2D0E9490038D
:1000EE000E94B802C82F8E2DB6010E94BE0080B5A8
:1000FE004E2D9601285F3F4F4F4FF901949147FDCA
:10010E0090819295990F990F907C892B806880BD74
:10011E008FB780688FBF8AB180648AB98AB18068D0
:10012E008AB9AE2DC6010696A11DFC015A2F0E945A
:10013E00B80370937A006093790084E0C80ED11CE6
:10014E00E11CF6015E2D0E94B80370937C00609353
:10015E007B008AB188608AB98AB180618AB901C090
:0E016E00C1E08C2FCF91EF90DF90CF900895DD
:10017C009AB19B7F9AB990B59B01482F265F3F4F50
:10018C004F4FF901249147FD20812370220F922BB0
:10019C00906890BD90B59B01482F255F3F4F4F4F06
:1001AC00F901249147FD208123702295207F922B09
:1001BC00906890BD20B5A82FCB010996A11DFC011C
:1001CC008491A7FD8081880F880F880F282B2068C9
:0401DC0020BD0895A5
:1001E0001F920F920FB60F9211242F933F934F93AC
:1001F0005F936F937F938F939F93AF93BF93EF938F
:10020000FF9388B78B7F88BFE0917700F0917800EB
:10021000309729F080917E00811101C00995FF91EE
:10022000EF91BF91AF919F918F917F916F915F916E
:100230004F913F912F910F900FBE0F901F901895E7
:100240001F920F920FB60F9211242F933F934F934B
:100250005F936F937F938F939F93AF93BF93EF932E
:10026000FF9388B7877F88BFE0917700F09178008F
:10027000309729F080917E00823009F40995FF9132
:10028000EF91BF91AF919F918F917F916F915F910E
:100290004F913F912F910F900FBE0F901F90189587
:1002A0001F920F920FB60F9211242F933F934F93EB
:1002B0005F936F937F938F939F93AF93BF93EF93CE
:1002C000FF9388B78F7E88BFE0917700F091780028
:1002D000309729F080917E00813009F40995FF91D3
:1002E000EF91BF91AF919F918F917F916F915F91AE
:1002F0004F913F912F910F900FBE0F901F90189527
:100300001F920F920FB60F9211242F933F934F938A
:100310005F936F937F938F939F93AF93BF93EF936D
:10032000FF9388B78F7D88BFE0917700F0917800C8
:10033000309729F080917E00833009F40995FF9170
:10034000EF91BF91AF919F918F917F916F915F914D
:100350004F913F912F910F900FBE0F901F901895C6
:100360001F920F920FB60F9211242F933F934F932A
:100370005F936F937F938F939F93AF93BF93EF930D
:10038000FF9386B18F7E86B9E0916D00F0916E008B
:10039000309709F00995FF91EF91BF91AF919F912F
:1003A0008F917F916F915F914F913F912F910F901E
:0803B0000FBE0F901F9018957D
:1003B8001F920F920FB60F9211242F933F934F93D2
:1003C8005F936F937F938F939F93AF93BF93EF93B5
:1003D800FF938AB78F7B8ABFE0917300F091740016
:1003E800309709F00995FF91EF91BF91AF919F91D7
:1003F8008F917F916F915F914F913F912F910F90C6
:080408000FBE0F901F90189524
:100410001F920F920FB60F9211242F933F934F9379
:100420005F936F937F938F939F93AF93BF93EF935C
:10043000FF938AB78F778ABFE0917100F0917200C5
:10044000309709F00995FF91EF91BF91AF919F917E
:100450008F917F916F915F914F913F912F910F906D
:080460000FBE0F901F901895CC
:100468001F920F920FB60F9211242F933F934F9321
:100478005F936F937F938F939F93AF93BF93EF9304
:10048800FF938AB78F7D8ABFE0916F00F09170006B
:10049800309709F00995FF91EF91BF91AF919F9126
:1004A8008F917F916F915F914F913F912F910F9015
:0804B8000FBE0F901F90189574
:1004C0001F920F920FB60F9211242F933F934F93C9
:1004D0005F936F937F938F939F93AF93BF93EF93AC
:1004E000FF9388B78D7F88BFE0917500F09176000B
:1004F000309709F00995FF91EF91BF91AF919F91CE
:100500008F917F916F915F914F913F912F910F90BC
:080510000FBE0F901F9018951B
:100518001F920F920FB60F9211242F933F934F9370
:100528005F936F937F938F939F93AF93BF93EF9353
:10053800FF9388B78E7F88BFE0917500F0917600B1
:10054800309709F00995FF91EF91BF91AF919F9175
:100558008F917F916F915F914F913F912F910F9064
:080568000FBE0F901F901895C3
:10057000DC01CB01880F991FAA1FBB1F880F991F91
:10058000AA1FBB1F9C01AD01220F331F441F551F23
:10059000220F331F441F551F60E072E18AE790E08D
:1005A0000E946103DA01C9010197A109B10981150E
:1005B0009041A105B10530F42150310930BD29B970
:0805C00080E0089581E0089538
:1005C800CF92DF92EF921F93CF93DF93611571055E
:1005D8008105C1F06B01E82EC0E0D0E010E004C056
:1005E8000E94CD03182B2196AE2DC6018C0F9D1F9E
:1005F800A11DD7FDAA95FC018491A7FD80818111D9
:10060800EFCF01C011E0812FDF91CF911F91EF90C3
:06061800DF90CF90089571
:10061E001F920F920FB60F9211242F933F934F9369
:10062E005F936F937F938F939F93AF93BF93EF934C
:10063E00FF93E0917900F0917A00309709F00995D7
:10064E00FF91EF91BF91AF919F918F917F916F919C
:10065E005F914F913F912F910F900FBE0F901F9072
:02066E001895DD
:100670001F920F920FB60F9211242F933F934F9317
:100680005F936F937F938F939F93AF93BF93EF93FA
:10069000FF93E0917B00F0917C00309709F0099581
:1006A000FF91EF91BF91AF919F918F917F916F914A
:1006B0005F914F913F912F910F900FBE0F901F9020
:0206C00018958B
:1006C200A1E21A2EAA1BBB1BFD010DC0AA1FBB1F54
:1006D200EE1FFF1FA217B307E407F50720F0A21BC6
:1006E200B30BE40BF50B661F771F881F991F1A9433
:1006F20069F760957095809590959B01AC01BD015D
:04070200CF01089586
:10070600009739F05F9B07C02CB1FC01208380E085
:0A071600089581E0089581E0089540
:1007200057FD05C0659175918591959108956191E9
:080730007191819191910895EE
:10073800EC010E94D7030E94D603CE010E94D80381
:06074800CE010E94D40363
:10074E008DE790E00E94830380917D000E94C0039C
:02075E000895FC
:100760000E94C70364EB70E080E00E94E402FFCFC8
:1007700057FD03C065917591089561917191089538
:0E0780005D9B03C08CB980E0089581E0089570
:0C078E0060E670E080E80E945F000895C3
:0A079A005D9BFECF8CB980E008954E
:0407A4000C940000B1
:0407A8000E94580053
:0207AC000895AE
:0207AE000895AC
:0207B0000895AA
:0D07B200802500000000A7030000030000E8
:00000001FF
