:100000000C9433000C942E0E0C945A0E0C94860E05
:100010000C947C110C947C110C94D20D0C94A20DB8
:100020000C94720D0C94420D0C94B20E0C94DE0ED6
:100030000C947C110C948C0F0C947C110C94B50FC7
:100040000C94020E0C947C110C947C110C947C1179
:100050000C947C1100600062800062007B0023062B
:10006000007B008D800011241FBECFE5D8E0DEBFED
:10007000CDBFE4E5F0E040E017C0B591A591359122
:100080002591059107FD0CC095918591EF01F92F00
:10009000E82F05900D92A217B307D9F7FE0104C00F
:1000A0001D92A217B307E1F7E536F40731F70E9476
:0A00B00076110C943D11F894FFCF77
:1000BA0068076C094C836A9074A07AC000806888CB
:0600CA0000846C8200813D
:0800D00053656E6465720D00BA
:0700D800286E756C6C290015
:0600DF00286E696C290087
:0400E500256C640022
:1000EA00A3EAB0E0EBE7F0E00C943E104C015901B2
:1000FA00C756DF4F488359836A83C959D040212C98
:10010A00312C6E012BE8C20ED11C85E2782E260115
:10011A0030E8632ECE018D569F4FC456DF4F998328
:10012A008883CC59D0409C0140E8CF55DF4F2883C3
:10013A0039834A83C15AD040C756DF4F4881C959CB
:10014A00D040C656DF4F5881CA59D040C556DF4FF6
:10015A006881CB59D040FA01849167FD8081882358
:10016A0009F4C9C3CF57DF4F19821882C158D0404A
:10017A008FEF9FEFCD57DF4F99838883C358D040C5
:10018A00CB57DF4F19821882C558D040A1E0B0E0A2
:10019A00AC0FBD1FC957DF4FB983A883C758D040DA
:1001AA00E0E8F0E0C757DF4FF983E883C958D04049
:1001BA00CA01A62FE12CF12CFC012491A7FD208174
:1001CA0021111BC0E114F10401F19701C4010E943D
:1001DA00DC0CC756DF4F88819981AA81C959D04062
:1001EA008E0D9F1DA11DF7FCAA95C756DF4F888368
:1001FA009983AA83C959D04008C00196A11D253206
:10020A0009F3FFEFEF1AFF0AD7CFC756DF4F8881EE
:10021A009981AA81C959D040FC012491A7FD208166
:10022A00253209F056C39C014A2F2F5F3F4F4F4F8B
:10023A00C256DF4F288339834A83CE59D040C756E6
:10024A00DF4F288339834A83C959D040C756DF4FC5
:10025A0088819981AA81C959D040FC012491A7FDBE
:10026A0020812B3241F4CF57DF4F28813981C15881
:10027A00D04024600BC02C32CCF02D3259F5CF5728
:10028A00DF4F28813981C158D0402160CF57DF4FD5
:10029A0039832883C158D0400196A11DC756DF4F24
:1002AA0088839983AA83C959D040D0CF203241F498
:1002BA00CF57DF4F28813981C158D0402860E6CF17
:1002CA00233291F4CF57DF4F28813981C158D0406A
:1002DA002061DCCF203341F4CF57DF4F28813981A9
:1002EA00C158D0402260D2CF2A3299F50196A11D79
:1002FA00C756DF4F88839983AA83C959D040D5014D
:10030A00ED91FC911197CF0102968D939C93808178
:10031A009181CB57DF4F99838883C558D04097FF87
:10032A003EC0CF57DF4F28813981C158D040B1E054
:10033A002B27CF57DF4F39832883C158D040919557
:10034A0081959109CB57DF4F99838883C558D0404F
:10035A0026C0BC018A2F0E945B0CCB57DF4F9983C2
:10036A008883C558D040C756DF4F288139814A81D2
:10037A00C959D040F901849147FD8081082E000CAB
:10038A00990BC0970A9758F42F5F3F4F4F4FC756A4
:10039A00DF4F288339834A83C959D040E4CFCF57E6
:1003AA00DF4F88819981C158D04080FF07C08D7F77
:1003BA00CF57DF4F99838883C158D040C756DF4F44
:1003CA0088819981AA81C959D040FC012491A7FD4D
:1003DA0020812E3209F058C0CD57DF4F198218827A
:1003EA00C358D0409C014A2F2F5F3F4F4F4FC756EB
:1003FA00DF4F288339834A83C959D040F901549180
:10040A0047FD50815A32D1F40296A11DC756DF4FDB
:10041A0088839983AA83C959D040D501ED91FC916B
:10042A001197CF0102968D939C9380819181CD572C
:10043A00DF4F99838883C358D04026C0842FB901DF
:10044A000E945B0CCD57DF4F99838883C358D040F5
:10045A00C756DF4F288139814A81C959D040F901ED
:10046A00849147FD8081082E000C990BC0970A974A
:10047A0058F42F5F3F4F4F4FC756DF4F28833983BA
:10048A004A83C959D040E4CFCE0187569F4F0E9474
:10049A00C30B182FC756DF4F2881C959D040C656FB
:1004AA00DF4F8881CA59D040C556DF4F9881CB5952
:1004BA00D040E22FF82F849197FD8081082E000CFE
:1004CA00990B0E9462118936910509F45AC0B4F455
:1004DA008336910509F466C144F48532910509F41D
:1004EA00A1C18136910529F1B3C18436910509F478
:1004FA0048C0883691050CF42DC1AAC180379105F0
:10050A0009F4CBC04CF48E36910509F419C18F3623
:10051A00910509F47CC09CC18537910509F454C042
:10052A008837910509F496C08337910509F090C17F
:10053A0058C1612F70E0A501C6010E940010892BE5
:10054A0009F4B7C1C756DF4F88819981AA81C95971
:10055A00D0409C014A2F2F5F3F4F4F4FC756DF4F66
:10056A00288339834A83C959D040FC012491A7FDC5
:10057A002081A601BE016F577F4FC4010E947911E5
:10058A0095C1612F70E0950141E050E0C6010E94DB
:10059A004907892B09F48DC1C756DF4F8881998194
:1005AA00AA81C959D0400196A11DC756DF4F888339
:1005BA009983AA83C959D040A601BE016F577F4FBC
:1005CA00C4010E948A0672C1612F70E0950140E061
:1005DA0050E0C6010E944907892B09F46AC1C7562F
:1005EA00DF4F88819981AA81C959D0400196A11DFE
:1005FA00C756DF4F88839983AA83C959D040A60179
:10060A00BE016F577F4FC4010E94C80A4FC1612FB4
:10061A0070E0950140E050E0C6010E944907892B2D
:10062A0009F447C1C756DF4F88819981AA81C95900
:10063A00D0400196A11DC756DF4F88839983AA83AC
:10064A00C959D040A601BE016F577F4FC4010E940D
:10065A009A092CC1612F70E0950140E050E0C60173
:10066A000E944907892B09F424C1C756DF4F8881A4
:10067A009981AA81C959D0409C014A2F2F5F3F4FC7
:10068A004F4FC756DF4F288339834A83C959D04011
:10069A00FC012491A7FD20814BC0950140E050E068
:1006AA0060EF70E0C6010E944907892B09F401C175
:1006BA00C756DF4F88819981AA81C959D0400196CE
:1006CA00A11DC756DF4F88839983AA83C959D04091
:1006DA0086E02FED30E040E0F901DE01AD56BF4F74
:1006EA00742F0E941811D6012C9111963C911197E2
:1006FA0012964C91129713965C91139714966C91DB
:10070A00149715967C91159716968C9116971796AD
:10071A009C91A0E00E94311151F400E010E0CF5505
:10072A00DF4F288139814A81C15AD040B9C028E7B0
:10073A00A601BE016F577F4FC4010E948604B6C04E
:10074A00612F70E09501A1014E0D5F1DC6010E9447
:10075A002E09AFC0612F70E0A501C6010E940010EA
:10076A00892B09F4A6C0C756DF4F88819981AA81CF
:10077A00C959D0409C014A2F2F5F3F4F4F4FC75650
:10078A00DF4F288339834A83C959D040FC01249119
:10079A00A7FD2081A601BE016F577F4FC4010E94A9
:1007AA00791184C0103809F084C0C756DF4F888198
:1007BA009981AA81C959D0400196A11DC756DF4F18
:1007CA0088839983AA83C959D040D501ED91FC91B8
:1007DA001197CF0102968D939C938081F6018083B5
:1007EA005BC0103809F065C0C756DF4F8881998110
:1007FA00AA81C959D0400196A11DC756DF4F8883E7
:10080A009983AA83C959D040D501ED91FC911197DA
:10081A00CF0103968D939C9320813181428100E020
:10082A0010E03EC0103809F044C0C756DF4F888137
:10083A009981AA81C959D0400196A11DC756DF4F97
:10084A0088839983AA83C959D040F601708224C04B
:10085A00D6017C92C256DF4F288139814A81CE590E
:10086A00D040C756DF4F288339834A83C959D040BD
:10087A00CF57DF4F19821882C158D040CB57DF4F6C
:10088A0019821882C558D0408FEF9FEFCD57DF4F9E
:10089A0099838883C358D04001E010E0462D920125
:1008AA00BE016F577F4FC4010E94040A8E0D9F1D1F
:1008BA0011C0C756DF4F88819981AA81C959D04092
:1008CA000196A11DC756DF4F88839983AA83C95908
:1008DA00D040C7017101E80EF91EE214F3044CF48A
:1008EA008FE490E090936100809360008FEF9FEF18
:1008FA0003C0170121CCC101CD55DF4FE2E10C94B1
:02090A00751066
:10090C00A4E1B0E0ECE8F4E00C943E1098878F83FF
:10091C007A8369835C8B4B8B122FDB011296ED91E2
:10092C00FC91139714962D913C9115973E832D8332
:10093C00ED90FC90119716962D903C901797F7FD23
:10094C0003C0E894E1F802C0E1E0F0E0C701807177
:10095C0099279A878987E4FE1FC0AB89BC892C91A3
:10096C0011963C91119712964C91129713965C919B
:10097C00139714966C91149715967C91159716965F
:10098C008C91169717969C91A0E00E94311121F042
:10099C008D819E81029702C08D819E819701287066
:1009AC0033273C872B87E3FC0197AB89BC894C90A0
:1009BC0011965C90119712966C90129713967C90EE
:1009CC00139714968C90149715969C9015971696D1
:1009DC00AC9016971796BC90A981BA811896CD90B9
:1009EC00DC901997B1E0CB1AD108D101AC0DBD1D2B
:1009FC001C929C838B839F01281B390B3E872D8770
:100A0C00C70182709927988B8F87812F012E000C3C
:100A1C00990BDC01A154B109BA8BA98B32E0C31636
:100A2C00D10434F489859A85892B09F04CC073C0A4
:100A3C009201A301B401C501A0E00E94311181F122
:100A4C00B1E0CB1AD108C2018F7099278A30910579
:100A5C0014F4C09602C0895A9F4FE989FA897A9793
:100A6C0048F49C012062215631092A31310510F4D9
:100A7C000E945111F101EC0DFD1D80832B813C81F5
:100A8C00215031093C832B839201A301B401C50190
:100A9C0004E00E94221029013A014B015C01BECFF7
:100AAC008D859E85AB81BC818A0F9B1F18161906FC
:100ABC003CF21A161B060CF0B5CFEF85F889EF2B1C
:100ACC0009F0BECFAFCFAB89BC892C9111963C916C
:100ADC00119712964C91129713965C91139714964A
:100AEC006C91149715967C91159716968C91169778
:100AFC0017969C91A0E00E94311169F0F101EC0D68
:100B0C00FD1D31971083B2E0CB1AD108F101EC0D29
:100B1C00FD1D80E38083EB85FC85EF2B41F0F1E03C
:100B2C00CF1AD108F101EC0DFD1D80E28083A98163
:100B3C00BA8118962D913C911997215031092C1995
:100B4C003D09C20CD31CA60160E80D811E818F816A
:100B5C0098850E94A7089C01EF81F885808191817E
:100B6C0090FF09C0A981BA8112968D919C9113971F
:100B7C00821793070CF4C9016496E2E10C9475108A
:100B8C00CF92DF92EF9261157105810509F4B7C020
:100B9C006B01E82E8EB5887F8EBD8E2DB6010E941E
:100BAC005A10AE2DC6010296A11DFC018491A7FD21
:100BBC008081811103C010928C000FC0843021F40D
:100BCC0081E080938C0009C08C3021F482E080930A
:100BDC008C0003C083E080938C004E2D96012D5F1A
:100BEC003F4F4F4FF901849147FD80818295880FCB
:100BFC00880F807C9FB59F73892B8FBDAE2DC6014E
:100C0C000496A11DFC018491A7FD80818370982F0F
:100C1C009295907F8FB58F7C892B8FBDF901849134
:100C2C0047FD8081882319F081B3806281BBAE2D92
:100C3C00C6010496A11DFC018491A7FD8081882327
:100C4C0019F081B3806181BBAE2DC6010696A11D42
:100C5C00FC015A2F0E945A117DBD6CBDAE2DC601F0
:100C6C000896A11DFC015A2F0E945A117BBD6ABD2A
:100C7C00AE2DC6010A96A11DFC015A2F0E945A11D5
:100C8C0079BD68BD8FB780688FBF88B78B7F88BFF1
:100C9C0088B78F7E88BF88B7877F88BF88B78F7DDE
:100CAC0088BFF6015E2D0E945A11709386006093E6
:100CBC008500AE2DC6010296A11DFC018491A7FDF5
:100CCC008081811104C089B7846089BF09C089B74C
:100CDC00806189BF89B7886089BF89B7806289BF05
:100CEC0085E0C80ED11CE11CF6018491E7FC8081E3
:100CFC0087709EB5987F892B8EBD80E001C081E006
:080D0C00EF90DF90CF900895F5
:100D1400ADE0B0E0E0E9F6E00C943E109A878987F4
:100D24007C836B83FA01DB011296CD90DC901397E0
:100D340014968D919C9115979E838D83ED90FC90D4
:100D44001197FA82E98216960D90BC91A02DB8876E
:100D5400AF83208031804280538064807580868098
:100D640097808101B42DF52DE62D7B868C869D869A
:100D74009101A201B301C401A0E00E9431114CF41D
:100D84000E94FA108901B42FF52FE62F7B878C87F8
:100D94009D87D7FC04C0E894E1F8FA82E9829101C6
:100DA400A201B301C401A0E0ED80FE800E943111D4
:100DB4001CF0898182FF04C081E0E81AF10805C0B3
:100DC40083FF03C091E0E91AF108CE0101965C01AA
:100DD4008AE0C82ED12C2B2F3F2F4E2F5B856C859C
:100DE4007D858B819C810E940208FC019101A201F6
:100DF400B301C401A0E00E9431111CF0898182FF7B
:100E040012C031970F8118850E0F1F1F9101A20187
:100E1400B301C401A0E00E94311114F08BE201C0BF
:100E24008DE2D80108C083FF07C03197AF81B88530
:100E3400AE0FBF1F80E28C93E980FA80AB81BC8146
:100E440018962D913C911997215031092E1B3F0B77
:100E54008F819885E80FF91FAF0160E80D811E812D
:100E640089859A850E94A7089C01A985BA858D91D8
:100E74009C9190FF07C0EB81FC8182819381821752
:0E0E840093070CF4C9012D96E2E10C94751051
:100E92000F931F93CF93DF93FC01D901683871053B
:100EA20031F194F461387105B1F12CF460387105B7
:100EB20009F478C09FC06238710509F459C06438DA
:100EC200710509F46FC096C0603A710509F448C013
:100ED2002CF46039710509F44BC08CC0603C71057B
:100EE20009F476C0603F710509F472C083C0CD91E8
:100EF200DC911197CE0102968D939C93452B39F08C
:100F02009881892F880F880B908381835BC08881A9
:100F12008083118268C0CD91DC911197CE01049635
:100F22008D939C93452B99F088819981AA81BB81ED
:100F3200AC01BD01770F440B542FBA01808391831A
:100F4200A283B383448345834683478328C00881B1
:100F520019812A813B81008311832283338345C017
:100F6200CD91DC911197CE0102968D939C9323C073
:100F7200CD91DC911197CE0108968D939C93788147
:100F820069815A814B813C812D819E818F81708341
:100F9200618352834383348325839683878381E0ED
:100FA20090E02AC0CD91DC911197CE0102968D93EB
:100FB2009C93452BA1F099812881892F880F880B5A
:100FC2002083918382838383848385838683E6CF90
:100FD200CD91DC911197CE0102968D939C9308815D
:100FE2001981008311831282138214821582168260
:100FF2001782D5CF80E090E0DF91CF911F910F91C2
:0210020008954F
:10100400A2E1B0E0E8E0F8E00C943E10FC010A8BA9
:101014001B832C83732E642E552E462E7D83CC8603
:10102400D886BF82AE82868197819B878A87D501C5
:101034004D915C91228133818085918501971C01BA
:1010440037FF02C021E030E0EA85FB85E80FF91F95
:1010540010824701E1E0F0E0FA83E983C9018E19C7
:101064009F099E878D87DA01A270BB27B88BAF8753
:10107400B885BB0FBB0BB98B1214130474F0A98190
:10108400BA81AB2B09F05CC0AE81BF818D919C917C
:1010940011978F7E8D939C9353C02A893B814C81F9
:1010A400572D662D752D842D9D81A0E00E94311150
:1010B400B1F1E1E02E1A3108FC85F987AF2EB8842E
:1010C400C988DC2CEC2CFC2C0C2D1C2D2A893B8192
:1010D4004C81572D662D752D842D9D810E940A11FA
:1010E400C90129839A83EA85FB85E20DF31D805D9E
:1010F400808381E0881A91082A893B814C81572D8D
:10110400662D752D842D9D810E940C112A8B3B83A5
:101114004C83752E662E572E482E9D83ADCF8D851C
:101124009E85880D991D181619061CF218141904A9
:101134000CF0A5CFEF85F889EF2B09F0BACF9FCF3C
:0A114400C1016296E2E10C947510FF
:10114E002F923F924F926F927F928F92AF92BF9259
:10115E00CF92DF92EF92FF920F931F93CF93DF9375
:10116E00CDB7DEB766970FB6F894DEBF0FBECDBF14
:10117E005C013A01862E6901C701817099279C8B0B
:10118E008B8BE0FC1DC020173107D4F47801EC18CE
:10119E00FD08FE8AED8AA70191E1E916F10410F02F
:1011AE0040E150E060E270E0CE0101969A8B898BAF
:1011BE000E94481189899A891C0120E8422E0BC091
:1011CE009601682DA301C5010E94DC0CC016D10644
:1011DE00ECF2C60125C090E1E916F10458F020E1C9
:1011EE0030E0642DA101C5010E94DC0C80E1E81AFB
:1011FE00F108F1CF2D893E892F70332789899A897D
:10120E00AC0160E8C5010E94DC0C8B899C89892B9E
:10121E0031F49601682DA301C5010E94DC0CC801B2
:10122E0066960FB6F894DEBF0FBECDBFDF91CF919D
:10123E001F910F91FF90EF90DF90CF90BF90AF90E6
:0E124E008F907F906F904F903F902F9008955B
:10125C00CF93DF93DC01F90164387105D9F164F4A3
:10126C006138710521F16238710509F440C06038AC
:10127C00710509F054C02EC060397105C1F184F4B8
:10128C006838710509F04BC0C081D181CE0102963E
:10129C0091838083E881F981ED93FC9340833CC07A
:1012AC00603A7105B9F0603C7105A1F038C0C0819D
:1012BC00D181CE01029691838083E881F981ED93EF
:1012CC00FC93052E000C660B770B408351836283D5
:1012DC00738322C0C081D181CE0102969183808319
:1012EC00E881F981ED93FC935183408315C0C08153
:1012FC00D181CE01029691838083E881F981ED93AF
:10130C00FC9351834083852F880F880B82838383C2
:10131C00848385838683878381E090E002C080E0AC
:08132C0090E0DF91CF910895DC
:10133400A2E0B0E0E0EAF9E00C943E101C014B019D
:10134400FA01DB0112962D913C91139714964D905E
:101354005C9015978D919C9111979A838983169629
:101364006D907C90179737FD03C08D7F9A83898396
:101374000081118122813381448155816681778185
:10138400FE0131965F0188E0C82ED12C7201C401A0
:101394000E940208298124FF06C00197F301E80F87
:1013A400F91F20E32083298123FF06C00197F3015D
:1013B400E80FF91F20E22083E980FA80D40118960F
:1013C4002D913C91199721503109281B390B860D19
:1013D400971DAC0160E88201C1010E94A7089C012D
:1013E400F1018081918190FF08C0D40112968D9102
:1013F4009C911397821793070CF4C9012296E2E19A
:041404000C947510BF
:101408002F923F924F926F927F928F92AF92BF929C
:10141800CF92DF92EF92FF920F931F93CF93DF93B8
:10142800CDB7DEB727970FB6F894DEBF0FBECDBF96
:101438006C017B013901842E980188ED282E80E00B
:10144800382E80E0482E87E0F101AE014F5F5F4FF4
:10145800DA01742D0E941811F70102811381A4800A
:10146800B580E080F18061147104810419F43A01B7
:10147800F0E88F2E2115310529F4882DB3010E943B
:10148800A8109C0117FD04C00217130708F498015F
:101498008501682DA301C6010E94A70827960FB6EB
:1014A800F894DEBF0FBECDBFDF91CF911F910F9192
:1014B800FF90EF90DF90CF90BF90AF908F907F908C
:0A14C8006F904F903F902F90089511
:1014D200CF92DF92EF92CF9361157105810509F4E6
:1014E2004FC06B01E82E8FB78F778FBF8AB1877F8E
:1014F2008AB98AB18F7E8AB9F6015E2D0E942511C2
:101502000E940A0FC82F8E2DB6010E94100D80B5C1
:101512004E2D9601285F3F4F4F4FF901949147FDA1
:1015220090819295990F990F907C892B806880BD4C
:101532008FB780688FBF8AB180648AB98AB18068A8
:101542008AB9AE2DC6010696A11DFC015A2F0E9432
:101552005A11709388006093870084E0C80ED11CF2
:10156200E11CF6015E2D0E945A1170938A0060936D
:1015720089008AB188608AB98AB180618AB901C05A
:0E158200C1E08C2FCF91EF90DF90CF900895B5
:10159000A2E0B0E0EEECFAE00C943E103C014B010E
:1015A000FA01DB0112962D913C91139714964D9000
:1015B0005C9015978D919C9111979A8389831696CB
:1015C0002D903C90179737FD03C08D7F9A838983B8
:1015D0000081118122813381448155816681778127
:1015E000FE0131965F018AE0C82ED12C7201C40140
:1015F0000E940208E980FA80D40118962D913C914E
:10160000199721503109281B390B820D931DAC010C
:1016100060E88201C3010E94A7089C01F301808158
:10162000918190FF08C0D40112968D919C911397DF
:10163000821793070CF4C9012296E2E10C9475100D
:101640006F927F928F92EF92FF920F931F93CF939F
:10165000DF93CDB7DEB761970FB6F894DEBF0FBE4C
:10166000CDBFFE01319651E1DF011D925A95E9F798
:10167000A2E0B1E0BA83A9839C838B8377FF09C082
:101680008FE490E090936100809360008FEF9FEF74
:1016900019C03901842E7C01615071097F836E83EA
:1016A0009801682DA301CF010E94901048855985AB
:1016B0002E813F814217530708F49A01F701E20F88
:1016C000F31F108261960FB6F894DEBF0FBECDBF38
:1016D000DF91CF911F910F91FF90EF908F907F90AE
:0416E0006F9008956A
:1016E40088249924F401E401B0E49F93AA279A156D
:1016F4008B049C04ED05FE05CF05D007A10798F4E3
:10170400AD2FDC2FCF2FFE2FE92D982C892E982F6B
:10171400872F762F652F542F432F322F2227B8502F
:1017240031F7BF9127C01B2EBF91BB27220F331F58
:10173400441F551F661F771F881F991F881C991CFB
:10174400EE1FFF1FCC1FDD1FAA1FBB1F8A149B04A3
:10175400EC05FD05CE05DF05A007B10748F08A18A2
:101764009B08EC09FD09CE09DF09A00BB10B216030
:101774001A94E1F62EF49401AF01BE01CD01000CE0
:021784000895C6
:10178600CF92DF92EF92DC0190E0292F30E0220F1A
:10179600331F6901032E000CEE086E2DA601465478
:1017A6005F4F6F4F6A01E62EFA018491E7FC808154
:1017B60081110DC02F5F3F4F032E000C440B2654A2
:1017C6003F4F4F4FF901849147FD808124C0CD9052
:1017D600DD90EC901297F6014491E7FC408184136A
:1017E60015C02F5F3F4F032E000C440B26543F4F6E
:1017F6004F4FF901949147FD90815FEFC51AD50AC5
:10180600E50ACD92DD92EC92129701C09F5F9B3064
:0E18160008F4BBCF892FEF90DF90CF9008959C
:101824000F931F93CF93DF93DB012D913C9111977D
:1018340030FF25C017964D915C91189715962D9100
:101844003C9116974217530778F41296ED91FC9148
:101854001397808312962D913C9113972F5F3F4FDE
:1018640013963C932E93129717962D913C911897AB
:101874002F5F3F4F18963C932E93179715C01D96D4
:10188400ED91FC911E97309719F48FEF9FEF0CC0E8
:101894008B01EC010995892BC1F7F80187819085AB
:1018A400019690878783CE01DF91CF911F910F918D
:0218B400089595
:1018B600CF939B01482FF901849147FD80818032A7
:1018C600C9F1682F082E000C770B69507109653035
:1018D600710580F18B3249F5A0E0B0E02F5F3F4FF4
:1018E6004F4F02C0A0E0B0E080E090E0CAE0F9010E
:1018F600649147FD6081062E000C770B60537109D9
:101906006A30710560F4C89FF001C99FF00D11247B
:101916002F5F3F4F4F4FCF01861B970BE8CFAB2B67
:1019260069F491958195910909C08D32D9F6A1E0A6
:10193600B0E0D4CF2F5F3F4F4F4FBDCFCF9108952B
:101946000F931F93CF93DF93CDB7DEB76E970FB686
:10195600F894DEBF0FBECDBF2EE18E010F5F1F4F85
:10196600F801322F11923A95E9F79F938F937F935F
:101976006F9385EE90E0A0E0AF939F938F931F92B5
:101986002F931F930F930E94D310B80180E80E94F3
:10199600610F0FB6F894DEBF0FBECDBF6E960FB6C1
:1019A600F894DEBF0FBECDBFDF91CF911F910F918F
:0219B600089592
:1019B8006F927F928F92CF92DF92EF920F931F9345
:1019C800CF93DF938C016A01E62EE9013A01862E56
:1019D800620E731E811C37FD8A94C614D704E8046E
:1019E80079F0F6018491E7FC8081B801082E000C9B
:1019F800990B0E94120C8FEFC81AD80AE80AEDCF8B
:101A0800CE01DF91CF911F910F91EF90DF90CF9092
:081A18008F907F906F900895FC
:101A20009AB19B7F9AB990B59B01482F265F3F4F93
:101A30004F4FF901249147FD20812370220F922BF3
:101A4000906890BD90B59B01482F255F3F4F4F4F49
:101A5000F901249147FD208123702295207F922B4C
:101A6000906890BD20B5A82FCB010996A11DFC015F
:101A70008491A7FD8081880F880F880F282B20680C
:041A800020BD0895E8
:101A84001F920F920FB60F9211242F933F934F93EF
:101A94005F936F937F938F939F93AF93BF93EF93D2
:101AA400FF9388B78B7F88BFE0918500F091860013
:101AB400309729F080918C00811101C00995FF9124
:101AC400EF91BF91AF919F918F917F916F915F91B2
:101AD4004F913F912F910F900FBE0F901F9018952B
:101AE4001F920F920FB60F9211242F933F934F938F
:101AF4005F936F937F938F939F93AF93BF93EF9372
:101B0400FF9388B7877F88BFE0918500F0918600B6
:101B1400309729F080918C00823009F40995FF9167
:101B2400EF91BF91AF919F918F917F916F915F9151
:101B34004F913F912F910F900FBE0F901F901895CA
:101B44001F920F920FB60F9211242F933F934F932E
:101B54005F936F937F938F939F93AF93BF93EF9311
:101B6400FF9388B78F7E88BFE0918500F09186004F
:101B7400309729F080918C00813009F40995FF9108
:101B8400EF91BF91AF919F918F917F916F915F91F1
:101B94004F913F912F910F900FBE0F901F9018956A
:101BA4001F920F920FB60F9211242F933F934F93CE
:101BB4005F936F937F938F939F93AF93BF93EF93B1
:101BC400FF9388B78F7D88BFE0918500F0918600F0
:101BD400309729F080918C00833009F40995FF91A6
:101BE400EF91BF91AF919F918F917F916F915F9191
:101BF4004F913F912F910F900FBE0F901F9018950A
:101C04001F920F920FB60F9211242F933F934F936D
:101C14005F936F937F938F939F93AF93BF93EF9350
:101C2400FF9386B18F7E86B9E0917B00F0917C00B2
:101C3400309709F00995FF91EF91BF91AF919F9172
:101C44008F917F916F915F914F913F912F910F9061
:081C54000FBE0F901F901895C0
:101C5C001F920F920FB60F9211242F933F934F9315
:101C6C005F936F937F938F939F93AF93BF93EF93F8
:101C7C00FF938AB78F7B8ABFE0918100F09182003D
:101C8C00309709F00995FF91EF91BF91AF919F911A
:101C9C008F917F916F915F914F913F912F910F9009
:081CAC000FBE0F901F90189568
:101CB4001F920F920FB60F9211242F933F934F93BD
:101CC4005F936F937F938F939F93AF93BF93EF93A0
:101CD400FF938AB78F778ABFE0917F00F0918000ED
:101CE400309709F00995FF91EF91BF91AF919F91C2
:101CF4008F917F916F915F914F913F912F910F90B1
:081D04000FBE0F901F9018950F
:101D0C001F920F920FB60F9211242F933F934F9364
:101D1C005F936F937F938F939F93AF93BF93EF9347
:101D2C00FF938AB78F7D8ABFE0917D00F0917E0092
:101D3C00309709F00995FF91EF91BF91AF919F9169
:101D4C008F917F916F915F914F913F912F910F9058
:081D5C000FBE0F901F901895B7
:101D64001F920F920FB60F9211242F933F934F930C
:101D74005F936F937F938F939F93AF93BF93EF93EF
:101D8400FF9388B78D7F88BFE0918300F091840032
:101D9400309709F00995FF91EF91BF91AF919F9111
:101DA4008F917F916F915F914F913F912F910F9000
:081DB4000FBE0F901F9018955F
:101DBC001F920F920FB60F9211242F933F934F93B4
:101DCC005F936F937F938F939F93AF93BF93EF9397
:101DDC00FF9388B78E7F88BFE0918300F0918400D9
:101DEC00309709F00995FF91EF91BF91AF919F91B9
:101DFC008F917F916F915F914F913F912F910F90A8
:081E0C000FBE0F901F90189506
:101E1400DC01CB01880F991FAA1FBB1F880F991FD4
:101E2400AA1FBB1F9C01AD01220F331F441F551F66
:101E3400220F331F441F551F60E072E18AE790E0D0
:101E44000E94DE0FDA01C9010197A109B1098115C8
:101E54009041A105B10530F42150310930BD29B9B3
:081E640080E0089581E008957B
:101E6C00CF92DF92EF921F93CF93DF9361157105A1
:101E7C008105C1F06B01E82EC0E0D0E010E004C099
:101E8C000E947111182B2196AE2DC6018C0F9D1F2F
:101E9C00A11DD7FDAA95FC018491A7FD808181111C
:101EAC00EFCF01C011E0812FDF91CF911F91EF9007
:061EBC00DF90CF900895B5
:101EC200CF92DF92EF921F93CF93DF93611571054B
:101ED2008105C1F06B01E82EC0E0D0E010E004C043
:101EE2000E946A11182B2196AE2DC6018C0F9D1FE0
:101EF200A11DD7FDAA95FC018491A7FD80818111C6
:101F0200EFCF01C011E0812FDF91CF911F91EF90B0
:061F1200DF90CF9008955E
:101F18001F920F920FB60F9211242F933F934F9356
:101F28005F936F937F938F939F93AF93BF93EF9339
:101F3800FF93E0918700F0918800309709F00995A8
:101F4800FF91EF91BF91AF919F918F917F916F9189
:101F58005F914F913F912F910F900FBE0F901F905F
:021F68001895CA
:101F6A001F920F920FB60F9211242F933F934F9304
:101F7A005F936F937F938F939F93AF93BF93EF93E7
:101F8A00FF93E0918900F0918A00309709F0099552
:101F9A00FF91EF91BF91AF919F918F917F916F9137
:101FAA005F914F913F912F910F900FBE0F901F900D
:021FBA00189578
:101FBC00A1E21A2EAA1BBB1BFD010DC0AA1FBB1F41
:101FCC00EE1FFF1FA217B307E407F50720F0A21BB3
:101FDC00B30BE40BF50B661F771F881F991F1A9420
:101FEC0069F760957095809590959B01AC01BD014A
:041FFC00CF01089574
:10200000FA0160387105CCF0623871051CF0633854
:10201000710599F4A081B1819D012C5F3F4F3183FF
:1020200020834D915D916D917C91FC0140835183A2
:102030006283738381E090E0089580E090E00895EA
:1020400097FB10F8169400080F93083098F008508A
:10205000232F342F452F562F672F782F892F902D20
:10206000F4CF0594979587957795679557954795FC
:0C207000379527950A95AAF70F9108955F
:10207C002F923F924F925F926F927F928F929F928C
:10208C00AF92BF92CF92DF92EF92FF920F931F937A
:10209C00CF93DF93CDB7DEB7CA1BDB0B0FB6F8942B
:0820AC00DEBF0FBECDBF099499
:1020B4009FB59B01482F2E5F3F4F4F4FF9018491ED
:1020C40047FD80818370982B9FBD9EB5F901849153
:1020D40047FD8081869586958370880F880F880FC9
:0620E400892B8EBD08955A
:1020EA002A88398848885F846E847D848C849B849E
:1020FA00AA84B984C884DF80EE80FD800C811B81AC
:10210A00AA81B981CE0FD11D0FB6F894DEBF0FBEDA
:06211A00CDBFED010895A8
:10212000A2E0B0E0E6E9F0E10C944C108C013A83B7
:1021300029839E012F5F3F4F0E947500F801208187
:1021400024FF02C08FEF9FEF2296E4E00C948310EF
:10215000CF92DF92EF926B01E82EA82FCB01FC010A
:102160002491A7FD2081222319F00196A11DF7CF0C
:0C2170008C199D09EF90DF90CF9008952E
:10217C00CF9362E670E080E80E94690AC82F60ED98
:10218C0070E080E00E94360FC82B6FE670E080E8AC
:0A219C000E94C6058C2BCF91089518
:1021A600A0E0B0E0E9EDF0E10C944C108E01025F86
:1021B6001F4F2B853C854D8569857A858F8198854E
:0A21C6000E94200BE4E00C9483104B
:1021D00060918B0081E0860F80938B0070E080E03F
:1021E00090E00E94A30C80918B008A3010F0109236
:0421F0008B000895C3
:1021F4006095709580959095309540955095219572
:102204003F4F4F4F5F4F6F4F7F4F8F4F9F4F0895FB
:10221400689401C0E8948F929F92CF93DF930E94B9
:0C222400720BDF91CF919F908F90089576
:10223000992777FD05C005900D920197E1F7089564
:0A22400001900D920197E1F7089557
:10224A0057FD05C0659175918591959108956191A4
:08225A007191819191910895A9
:102262000024A7FD00942A1730054005500560059B
:08227200700580059005089538
:10227A00EC010E9481110E948011CE010E948211FC
:06228A00CE010E947E114E
:10229000FC01480F591FE417F50711F06193FBCFBC
:0222A00008959F
:1022A2009C01215631092A31310510F48F75992785
:0222B20008958D
:1022B40057FD03C0659175910895619171910895D9
:1022C4009C01215431092A31310508F480620895B2
:0E22D4005D9B03C08CB980E0089581E0089501
:0A22E2005D9BFECF8CB980E00895EB
:0622EC000E94BE10FFCFAE
:0622F20080E090E0089579
:0422F8000C94000042
:0422FC000E945B00E1
:0223000008953E
:0223020008953C
:0223040008953A
:0D2306008025000000000000000003000022
:0C231300E810040000040000117A117AA8
:00000001FF
