:100000000C9439000C9449110C9475110C940F1434
:100010000C94A2140C94A2140C94A2140C94A21488
:100020000C94A2140C94A2140C94A2140C94A21478
:100030000C94A2140C94A2140C94A2140C94A21468
:100040000C94A2140C94A2140C94A2140C94A21458
:100050000C94A2140060007280007200800029528B
:100060000080008C80008C00900029600090009837
:10007000800011241FBECFE5D8E0DEBFCDBFE4E590
:10008000F0E040E017C0B591A5913591259105911B
:1000900007FD0CC095918591EF01F92FE82F059090
:1000A0000D92A217B307D9F7FE0104C01D92A21743
:1000B000B307E1F7E137F40731F70E94AF130C946F
:0600C0005F14F894FFCF6D
:1000C6004572723A20446976206279203000414EAA
:1000D60053200000456E7465723A204F7065726158
:0400E6006E64310013
:1000EA0068076C094C836A9074A07AC0008068889B
:0600FA0000846C8200810D
:100100003738392F3435362A3132332D23303D2BD1
:0B011000256400526573756C743A00A2
:07011B00286E756C6C2900D1
:06012200286E696C290043
:10012800A3EAB0E0EAE9F0E00C94FC124C015901B2
:10013800C756DF4F488359836A83C959D040212C59
:10014800312C6E012BE8C20ED11C85E2782E2601D7
:1001580030E8632ECE018D569F4FC456DF4F9983EA
:100168008883CC59D0409C0140E8CF55DF4F288385
:1001780039834A83C15AD040C756DF4F4881C9598D
:10018800D040C656DF4F5881CA59D040C556DF4FB8
:100198006881CB59D040FA01849167FD808188231A
:1001A80009F4C9C3CF57DF4F19821882C158D0400C
:1001B8008FEF9FEFCD57DF4F99838883C358D04087
:1001C800CB57DF4F19821882C558D040A1E0B0E064
:1001D800AC0FBD1FC957DF4FB983A883C758D0409C
:1001E800E0E8F0E0C757DF4FF983E883C958D0400B
:1001F800CA01A62FE12CF12CFC012491A7FD208136
:1002080021111BC0E114F10401F19701C4010E94FE
:100218001511C756DF4F88819981AA81C959D040E5
:100228008E0D9F1DA11DF7FCAA95C756DF4F888329
:100238009983AA83C959D04008C00196A11D2532C7
:1002480009F3FFEFEF1AFF0AD7CFC756DF4F8881B0
:100258009981AA81C959D040FC012491A7FD208128
:10026800253209F056C39C014A2F2F5F3F4F4F4F4D
:10027800C256DF4F288339834A83CE59D040C756A8
:10028800DF4F288339834A83C959D040C756DF4F87
:1002980088819981AA81C959D040FC012491A7FD80
:1002A80020812B3241F4CF57DF4F28813981C15843
:1002B800D04024600BC02C32CCF02D3259F5CF57EA
:1002C800DF4F28813981C158D0402160CF57DF4F97
:1002D80039832883C158D0400196A11DC756DF4FE6
:1002E80088839983AA83C959D040D0CF203241F45A
:1002F800CF57DF4F28813981C158D0402860E6CFD9
:10030800233291F4CF57DF4F28813981C158D0402B
:100318002061DCCF203341F4CF57DF4F288139816A
:10032800C158D0402260D2CF2A3299F50196A11D3A
:10033800C756DF4F88839983AA83C959D040D5010E
:10034800ED91FC911197CF0102968D939C9380813A
:100358009181CB57DF4F99838883C558D04097FF49
:100368003EC0CF57DF4F28813981C158D040B1E016
:100378002B27CF57DF4F39832883C158D040919519
:1003880081959109CB57DF4F99838883C558D04011
:1003980026C0BC018A2F0E949110CB57DF4F99834A
:1003A8008883C558D040C756DF4F288139814A8194
:1003B800C959D040F901849147FD8081082E000C6D
:1003C800990BC0970A9758F42F5F3F4F4F4FC75666
:1003D800DF4F288339834A83C959D040E4CFCF57A8
:1003E800DF4F88819981C158D04080FF07C08D7F39
:1003F800CF57DF4F99838883C158D040C756DF4F06
:1004080088819981AA81C959D040FC012491A7FD0E
:1004180020812E3209F058C0CD57DF4F198218823B
:10042800C358D0409C014A2F2F5F3F4F4F4FC756AC
:10043800DF4F288339834A83C959D040F901549141
:1004480047FD50815A32D1F40296A11DC756DF4F9D
:1004580088839983AA83C959D040D501ED91FC912D
:100468001197CF0102968D939C9380819181CD57EE
:10047800DF4F99838883C358D04026C0842FB901A1
:100488000E949110CD57DF4F99838883C358D0407D
:10049800C756DF4F288139814A81C959D040F901AF
:1004A800849147FD8081082E000C990BC0970A970C
:1004B80058F42F5F3F4F4F4FC756DF4F288339837C
:1004C8004A83C959D040E4CFCE0187569F4F0E9436
:1004D800F90F182FC756DF4F2881C959D040C65683
:1004E800DF4F8881CA59D040C556DF4F9881CB5914
:1004F800D040E22FF82F849197FD8081082E000CC0
:10050800990B0E948D148936910509F45AC0B4F4E8
:100518008336910509F466C144F48532910509F4DE
:10052800A1C18136910529F1B3C18436910509F439
:1005380048C0883691050CF42DC1AAC180379105B1
:1005480009F4CBC04CF48E36910509F419C18F36E5
:10055800910509F47CC09CC18537910509F454C004
:100568008837910509F496C08337910509F090C141
:1005780058C1612F70E0A501C6010E946712892B3E
:1005880009F4B7C1C756DF4F88819981AA81C95933
:10059800D0409C014A2F2F5F3F4F4F4FC756DF4F28
:1005A800288339834A83C959D040FC012491A7FD87
:1005B8002081A601BE016F577F4FC4010E949F147E
:1005C80095C1612F70E0950141E050E0C6010E949D
:1005D800EB07892B09F48DC1C756DF4F88819981B4
:1005E800AA81C959D0400196A11DC756DF4F8883FB
:1005F8009983AA83C959D040A601BE016F577F4F7E
:10060800C4010E942C0772C1612F70E0950140E07F
:1006180050E0C6010E94EB07892B09F46AC1C7564E
:10062800DF4F88819981AA81C959D0400196A11DBF
:10063800C756DF4F88839983AA83C959D040A6013A
:10064800BE016F577F4FC4010E94A90E4FC1612F91
:1006580070E0950140E050E0C6010E94EB07892B4D
:1006680009F447C1C756DF4F88819981AA81C959C2
:10067800D0400196A11DC756DF4F88839983AA836E
:10068800C959D040A601BE016F577F4FC4010E94CF
:10069800A80C2CC1612F70E0950140E050E0C60124
:1006A8000E94EB07892B09F424C1C756DF4F8881C4
:1006B8009981AA81C959D0409C014A2F2F5F3F4F89
:1006C8004F4FC756DF4F288339834A83C959D040D3
:1006D800FC012491A7FD20814BC0950140E050E02A
:1006E80060EF70E0C6010E94EB07892B09F401C195
:1006F800C756DF4F88819981AA81C959D040019690
:10070800A11DC756DF4F88839983AA83C959D04052
:1007180086E022E231E040E0F901DE01AD56BF4F4C
:10072800742F0E943A14D6012C9111963C9111977E
:1007380012964C91129713965C91139714966C919C
:10074800149715967C91159716968C91169717966F
:100758009C91A0E00E94531451F400E010E0CF55A2
:10076800DF4F288139814A81C15AD040B9C028E772
:10077800A601BE016F577F4FC4010E94EC05B6C0A9
:10078800612F70E09501A1014E0D5F1DC6010E9409
:100798003C0CAFC0612F70E0A501C6010E94671232
:1007A800892B09F4A6C0C756DF4F88819981AA8191
:1007B800C959D0409C014A2F2F5F3F4F4F4FC75612
:1007C800DF4F288339834A83C959D040FC012491DB
:1007D800A7FD2081A601BE016F577F4FC4010E946B
:1007E8009F1484C0103809F084C0C756DF4F888131
:1007F8009981AA81C959D0400196A11DC756DF4FDA
:1008080088839983AA83C959D040D501ED91FC9179
:100818001197CF0102968D939C938081F601808376
:100828005BC0103809F065C0C756DF4F88819981D1
:10083800AA81C959D0400196A11DC756DF4F8883A8
:100848009983AA83C959D040D501ED91FC9111979C
:10085800CF0103968D939C9320813181428100E0E2
:1008680010E03EC0103809F044C0C756DF4F8881F9
:100878009981AA81C959D0400196A11DC756DF4F59
:1008880088839983AA83C959D040F601708224C00D
:10089800D6017C92C256DF4F288139814A81CE59D0
:1008A800D040C756DF4F288339834A83C959D0407F
:1008B800CF57DF4F19821882C158D040CB57DF4F2E
:1008C80019821882C558D0408FEF9FEFCD57DF4F60
:1008D80099838883C358D04001E010E0462D9201E7
:1008E800BE016F577F4FC4010E94E00D8E0D9F1D02
:1008F80011C0C756DF4F88819981AA81C959D04054
:100908000196A11DC756DF4F88839983AA83C959C9
:10091800D040C7017101E80EF91EE214F3044CF44B
:100928008FE490E090937100809370008FEF9FEFB9
:1009380003C0170121CCC101CD55DF4FE2E10C9472
:02094800331367
:10094A00CF92DF92EF920F931F93CF93DF930F9281
:10095A00CDB7DEB78FE089830EC0809194008823DB
:10096A0019F00E94F3112AC1BE016F5F7F4F82E71F
:10097A0090E00E94CC0B49814F3079F380ED840FCF
:10098A008A3008F06FC0109295008091960081110C
:10099A0033C08091840090918500A0918600B09127
:1009AA008700880F991FAA1FBB1F8C019D01000F8A
:1009BA00111F221F331F000F111F221F331F080F81
:1009CA00191F2A1F3B1F842F90E0C097092E000C85
:1009DA00AA0BBB0B800F911FA21FB31F8093840029
:1009EA0090938500A0938600B09387006AE770E031
:1009FA0080E80E94CA11DCC0823009F0D9C0009197
:100A0A008000109181002091820030918300000FB4
:100A1A00111F221F331FD901C801880F991FAA1F4E
:100A2A00BB1F880F991FAA1FBB1F080F191F2A1F58
:100A3A003B1F842F90E0C097092E000CAA0BBB0B1A
:100A4A00800F911FA21FB31F809380009093810093
:100A5A00A0938200B09383006AE770E080E80E9466
:100A6A00CA11A6C04B3239F04D3229F04A3219F078
:100A7A004F3209F067C080919500882309F443C07A
:100A8A008091880090918900A0918A00B0918B0092
:100A9A008093840090938500A0938600B09387008A
:100AAA0010928000109281001092820010928300AE
:100ABA008AE790E06C0120E8E22E41E08E2DB60133
:100ACA000E94A11189818093970082E08093960009
:100ADA0025E030E044ED50E060E080E690E00E94DE
:100AEA00681300E610E021E041E08E2DB6010E9475
:100AFA004E1349818E2DB6010E94CA1140E28E2DF5
:100B0A00B6010E94CA1180919600811151C0898153
:100B1A008093970082E0809396008AE790E06C01C8
:100B2A0020E8E22E40E28E2DB6010E94CA114981C8
:100B3A008E2DB6010E94CA1140E28E2DB6010E9486
:100B4A00CA1136C04D3389F480919600823081F5FE
:100B5A00609180007091810040919700809184009B
:100B6A00909185000E947A0D23C0433209F51092B4
:100B7A0084001092850010928600109287001092CD
:100B8A0080001092810010928200109283001092CD
:100B9A00970010929600109295006AE770E080E83C
:100BAA0041E00E94A1116AED70E080E00E94871284
:100BBA008FE493EC0197F1F700C000000F90DF91EA
:0E0BCA00CF911F910F91EF90DF90CF90089583
:100BD800A4E1B0E0E2EFF5E00C94FC1298878F8373
:100BE8007A8369835C8B4B8B122FDB011296ED9114
:100BF800FC91139714962D913C9115973E832D8364
:100C0800ED90FC90119716962D903C901797F7FD54
:100C180003C0E894E1F802C0E1E0F0E0C7018071A8
:100C280099279A878987E4FE1FC0AB89BC892C91D4
:100C380011963C91119712964C91129713965C91CC
:100C4800139714966C91149715967C911597169690
:100C58008C91169717969C91A0E00E94531421F04E
:100C68008D819E81029702C08D819E819701287097
:100C780033273C872B87E3FC0197AB89BC894C90D1
:100C880011965C90119712966C90129713967C901F
:100C9800139714968C90149715969C901597169602
:100CA800AC9016971796BC90A981BA811896CD90EA
:100CB800DC901997B1E0CB1AD108D101AC0DBD1D5C
:100CC8001C929C838B839F01281B390B3E872D87A1
:100CD800C70182709927988B8F87812F012E000C6E
:100CE800990BDC01A154B109BA8BA98B32E0C31668
:100CF800D10434F489859A85892B09F04CC073C0D6
:100D08009201A301B401C501A0E00E94531481F12E
:100D1800B1E0CB1AD108C2018F7099278A309105AA
:100D280014F4C09602C0895A9F4FE989FA897A97C4
:100D380048F49C012062215631092A31310510F40A
:100D48000E947C14F101EC0DFD1D80832B813C81F8
:100D5800215031093C832B839201A301B401C501C1
:100D680004E00E94A71229013A014B015C01BECFA1
:100D78008D859E85AB81BC818A0F9B1F181619062D
:100D88003CF21A161B060CF0B5CFEF85F889EF2B4D
:100D980009F0BECFAFCFAB89BC892C9111963C919D
:100DA800119712964C91129713965C91139714967B
:100DB8006C91149715967C91159716968C911697A9
:100DC80017969C91A0E00E94531469F0F101EC0D74
:100DD800FD1D31971083B2E0CB1AD108F101EC0D5B
:100DE800FD1D80E38083EB85FC85EF2B41F0F1E06E
:100DF800CF1AD108F101EC0DFD1D80E28083A98195
:100E0800BA8118962D913C911997215031092C19C6
:100E18003D09C20CD31CA60160E80D811E818F819B
:100E280098850E94450B9C01EF81F885808191810E
:100E380090FF09C0A981BA8112968D919C91139750
:100E4800821793070CF4C9016496E2E10C943313FA
:100E5800ADE0B0E0E2E3F7E00C94FC129A878987F2
:100E68007C836B83FA01DB011296CD90DC9013979B
:100E780014968D919C9115979E838D83ED90FC908F
:100E88001197FA82E98216960D90BC91A02DB88729
:100E9800AF83208031804280538064807580868053
:100EA80097808101B42DF52DE62D7B868C869D8655
:100EB8009101A201B301C401A0E00E9453144CF4B3
:100EC8000E94FF138901B42FF52FE62F7B878C87AB
:100ED8009D87D7FC04C0E894E1F8FA82E982910181
:100EE800A201B301C401A0E0ED80FE800E9453146A
:100EF8001CF0898182FF04C081E0E81AF10805C06E
:100F080083FF03C091E0E91AF108CE0101965C0164
:100F18008AE0C82ED12C2B2F3F2F4E2F5B856C8556
:100F28007D858B819C810E94030AFC019101A201AD
:100F3800B301C401A0E00E9453141CF0898182FF10
:100F480012C031970F8118850E0F1F1F9101A20142
:100F5800B301C401A0E00E94531414F08BE201C055
:100F68008DE2D80108C083FF07C03197AF81B885EB
:100F7800AE0FBF1F80E28C93E980FA80AB81BC8101
:100F880018962D913C911997215031092E1B3F0B32
:100F98008F819885E80FF91FAF0160E80D811E81E8
:100FA80089859A850E94450B9C01A985BA858D91F2
:100FB8009C9190FF07C0EB81FC818281938182170D
:0E0FC80093070CF4C9012D96E2E10C9433134B
:100FD6000F931F93CF93DF93FC01D90168387105F6
:100FE60031F194F461387105B1F12CF46038710572
:100FF60009F478C09FC06238710509F459C0643895
:10100600710509F46FC096C0603A710509F448C0CD
:101016002CF46039710509F44BC08CC0603C710535
:1010260009F476C0603F710509F472C083C0CD91A2
:10103600DC911197CE0102968D939C93452B39F046
:101046009881892F880F880B908381835BC0888164
:101056008083118268C0CD91DC911197CE010496F0
:101066008D939C93452B99F088819981AA81BB81A8
:10107600AC01BD01770F440B542FBA0180839183D5
:10108600A283B383448345834683478328C008816C
:1010960019812A813B81008311832283338345C0D2
:1010A600CD91DC911197CE0102968D939C9323C02E
:1010B600CD91DC911197CE0108968D939C93788102
:1010C60069815A814B813C812D819E818F817083FC
:1010D600618352834383348325839683878381E0A8
:1010E60090E02AC0CD91DC911197CE0102968D93A6
:1010F6009C93452BA1F099812881892F880F880B15
:101106002083918382838383848385838683E6CF4A
:10111600CD91DC911197CE0102968D939C93088117
:10112600198100831183128213821482158216821A
:101136001782D5CF80E090E0DF91CF911F910F917C
:0211460008950A
:10114800CF92DF92EF926B01E82E61157105810550
:1011580009F49CC0FB018491E7FC80818695869503
:1011680086958770442309F448C0413009F090C03F
:10117800F6012491E7FC208127702130A1F028F0A6
:101188002230F9F0233059F185C04BB321E030E02B
:10119800B90102C0660F771F8A95E2F7CB01842B4D
:1011A8008BBB80E07AC048B321E030E0B90102C0CF
:1011B800660F771F8A95E2F7CB01842B88BB80E006
:1011C8006CC045B321E030E0B90102C0660F771F5B
:1011D8008A95E2F7CB01842B85BB80E05EC042B3E1
:1011E80021E030E0B90102C0660F771F8A95E2F767
:1011F800CB01842B82BB80E050C0F6012491E7FC30
:10120800208127702130A9F028F0223009F12330FD
:1012180071F142C04BB321E030E0B90102C0660F62
:10122800771F8A95E2F7CB01809584238BBB80E0FA
:1012380034C048B321E030E0B90102C0660F771F1F
:101248008A95E2F7CB018095842388BB80E025C08E
:1012580045B321E030E0B90102C0660F771F8A95D7
:10126800E2F7CB018095842385BB80E016C042B3AA
:1012780021E030E0B90102C0660F771F8A95E2F7D6
:10128800CB018095842382BB80E007C081E005C044
:1012980081E003C080E001C080E0EF90DF90CF9054
:0212A8000895A7
:1012AA009B01482F61157105810509F49FC0FB0157
:1012BA00849147FD80818695869586958770F90188
:1012CA00549147FD508156FB662760F956FF45C089
:1012DA00613009F08DC0252F27702130A1F028F048
:1012EA002230F9F0233059F185C04AB321E030E0C9
:1012FA00B90102C0660F771F8A95E2F7CB01842BEA
:10130A008ABB80E0089547B321E030E0B90102C00A
:10131A00660F771F8A95E2F7CB01842B87BB80E0A3
:10132A00089544B321E030E0B90102C0660F771F87
:10133A008A95E2F7CB01842B84BB80E0089541B300
:10134A0021E030E0B90102C0660F771F8A95E2F703
:10135A00CB01842B81BB80E00895F901249147FDDC
:10136A00208127702130A9F028F0223009F123309A
:10137A0071F142C04AB321E030E0B90102C0660F00
:10138A00771F8A95E2F7CB01809584238ABB80E098
:10139A00089547B321E030E0B90102C0660F771F14
:1013AA008A95E2F7CB018095842387BB80E0089574
:1013BA0044B321E030E0B90102C0660F771F8A9575
:1013CA00E2F7CB018095842384BB80E0089541B382
:1013DA0021E030E0B90102C0660F771F8A95E2F773
:1013EA00CB018095842381BB80E0089581E0089534
:0C13FA0081E0089580E0089580E00895EF
:10140600A2E1B0E0E9E0FAE00C94FC12FC010A8BE0
:101416001B832C83732E642E552E462E7D83CC86FD
:10142600D886BF82AE82868197819B878A87D501BF
:101436004D915C91228133818085918501971C01B4
:1014460037FF02C021E030E0EA85FB85E80FF91F8F
:1014560010824701E1E0F0E0FA83E983C9018E19C1
:101466009F099E878D87DA01A270BB27B88BAF874D
:10147600B885BB0FBB0BB98B1214130474F0A9818A
:10148600BA81AB2B09F05CC0AE81BF818D919C9176
:1014960011978F7E8D939C9353C02A893B814C81F3
:1014A600572D662D752D842D9D81A0E00E94531425
:1014B600B1F1E1E02E1A3108FC85F987AF2EB88428
:1014C600C988DC2CEC2CFC2C0C2D1C2D2A893B818C
:1014D6004C81572D662D752D842D9D810E942C14CF
:1014E600C90129839A83EA85FB85E20DF31D805D98
:1014F600808381E0881A91082A893B814C81572D87
:10150600662D752D842D9D810E942E142A8B3B837A
:101516004C83752E662E572E482E9D83ADCF8D8516
:101526009E85880D991D181619061CF218141904A3
:101536000CF0A5CFEF85F889EF2B09F0BACF9FCF36
:0A154600C1016296E2E10C94331338
:10155000CF92DF92EF92CF93DF930F92CDB7DEB7AA
:1015600061157105810509F488C06B01E82EA82F6B
:10157000CB010296A11DFC018491A7FD80818130E1
:10158000A9F120F0823009F463C073C08BB78F7B60
:101590008BBF8981887F8360877C80618F7B898313
:1015A000BE016F5F7F4F80E80E94E0124E2D9601D2
:1015B0002D5F3F4F4F4FF901949147FD908194303B
:1015C00008F059C0937025B72C7F922B95BFF60178
:1015D0005E2D0E94851470939300609392009FB7D4
:1015E00090689FBF9BB790649BBF48C08BB78F77B5
:1015F0008BBF8981887F8360877C88618F7B8983AB
:10160000BE016F5F7F4F80E80E94E0124E2D960171
:101610002D5F3F4F4F4FF901949147FD90819430DA
:1016200050F59370292F220F220F95B7937F922B9D
:1016300095BFF6015E2D0E94851470939100609312
:1016400090009FB790689FBF9BB790689BBF16C0E4
:101650008BB78F7D8BBF8981887F8160877C80611C
:101660008F7B8983BE016F5F7F4F80E80E94E0120D
:1016700002C080E003C081E001C081E00F90DF91F3
:0A168000CF91EF90DF90CF90089516
:10168A002F923F924F926F927F928F92AF92BF9218
:10169A00CF92DF92EF92FF920F931F93CF93DF9334
:1016AA00CDB7DEB766970FB6F894DEBF0FBECDBFD3
:1016BA005C013A01862E6901C701817099279C8BCA
:1016CA008B8BE0FC1DC020173107D4F47801EC188D
:1016DA00FD08FE8AED8AA70191E1E916F10410F0EE
:1016EA0040E150E060E270E0CE0101969A8B898B6E
:1016FA000E94731489899A891C0120E8422E0BC022
:10170A009601682DA301C5010E941511C016D106C4
:10171A00ECF2C60125C090E1E916F10458F020E187
:10172A0030E0642DA101C5010E94151180E1E81A7B
:10173A00F108F1CF2D893E892F70332789899A893B
:10174A00AC0160E8C5010E9415118B899C89892B1F
:10175A0031F49601682DA301C5010E941511C80133
:10176A0066960FB6F894DEBF0FBECDBFDF91CF915C
:10177A001F910F91FF90EF90DF90CF90BF90AF90A5
:0E178A008F907F906F904F903F902F9008951A
:101798008F929F92AF92BF92CF92DF92EF92FF9279
:1017A8000F931F93CF93DF930F92CDB7DEB70097B8
:1017B80009F44DC06115710509F44BC05B017C014A
:1017C8001982812C80E03FC0B701610F711D80E84C
:1017D80040E00E94A4081F5F01C010E01430A0F38D
:1017E800C82CD12CB7016C0D7D1D80E841E00E940A
:1017F800A408912C24C0092D10E0B8016C5F7F4F1C
:101808006E0D7F1D80E8AE014F5F5F4F0E94450E51
:101818009981913099F49601220F331F220F331FBB
:10182800200F311F032E000C440B20503F4F4F4F09
:10183800F901949147FD9081F50190839394F3E029
:10184800F915C8F6839493E0981538F603C081E03B
:1018580001C081E00F90DF91CF911F910F91FF9010
:10186800EF90DF90CF90BF90AF909F908F900895AA
:10187800CF93DF93DC01F90164387105D9F164F481
:101888006138710521F16238710509F440C060388A
:10189800710509F054C02EC060397105C1F184F496
:1018A8006838710509F04BC0C081D181CE0102961C
:1018B80091838083E881F981ED93FC9340833CC058
:1018C800603A7105B9F0603C7105A1F038C0C0817B
:1018D800D181CE01029691838083E881F981ED93CD
:1018E800FC93052E000C660B770B408351836283B3
:1018F800738322C0C081D181CE01029691838083F7
:10190800E881F981ED93FC935183408315C0C08130
:10191800D181CE01029691838083E881F981ED938C
:10192800FC9351834083852F880F880B82838383A0
:10193800848385838683878381E090E002C080E08A
:0819480090E0DF91CF910895BA
:10195000A2E0B0E0EEEAFCE00C94FC121C014B01AA
:10196000FA01DB0112962D913C91139714964D903C
:101970005C9015978D919C9111979A838983169607
:101980006D907C90179737FD03C08D7F9A83898374
:101990000081118122813381448155816681778163
:1019A000FE0131965F0188E0C82ED12C7201C4017E
:1019B0000E94030A298124FF06C00197F301E80F62
:1019C000F91F20E32083298123FF06C00197F3013B
:1019D000E80FF91F20E22083E980FA80D4011896ED
:1019E0002D913C91199721503109281B390B860DF7
:1019F000971DAC0160E88201C1010E94450B9C016A
:101A0000F1018081918190FF08C0D40112968D91DF
:101A10009C911397821793070CF4C9012296E2E177
:041A20000C943313DC
:101A2400CF92DF92EF92CF9361157105810509F48E
:101A340059C06B01E82E0E94E0128E2DB6016F5F33
:101A44007F4F8F4F0E94E012C0E00DC08C2F90E0BA
:101A540002964E2D9601280F391F411D842FB9017E
:101A64000E94E012CF5FC43088F38FE19EE40197B7
:101A7400F1F700C0000048E38E2DB6010E94A111C9
:101A840087E893E10197F1F700C0000048E38E2D49
:101A9400B6010E94A11198EC9A95F1F748E38E2DB6
:101AA400B6010E94A11141E08E2DB6010E94A11140
:101AB40042E08E2DB6010E94A11146E08E2DB601A2
:101AC4000E94A1114CE08E2DB6010E94A11148E2A2
:101AD4008E2DB6010E94A11140E88E2DB6010E9400
:101AE400A11101C081E0CF91EF90DF90CF900895D4
:101AF4000F931F93CF93DF930F92CDB7DEB74B3283
:101B040049F018F44A3271F042C04D3239F04F3284
:101B140089F03DC08B01080F191F3BC08C01061BC7
:101B2400170B37C0689F8001699F100D789F100DB7
:101B340011242FC06115710521F00E94C4138B017B
:101B440028C02DE030E046EC50E060E080E690E014
:101B54000E9468136AE770E080E800E610E020E085
:101B640042E00E944E1319820EC080919400882393
:101B740019F00E94F3111CC0BE016F5F7F4F82E712
:101B840090E00E94CC0B8981833279F711C000E088
:101B940010E0C8010E94010FC801110FAA0BBB0B72
:101BA4008093880090938900A0938A00B0938B005F
:0C1BB4000F90DF91CF911F910F910895C9
:101BC0002F923F924F926F927F928F92AF92BF92DD
:101BD000CF92DF92EF92FF920F931F93CF93DF93F9
:101BE000CDB7DEB727970FB6F894DEBF0FBECDBFD7
:101BF0006C017B013901842E98018BE1282E81E054
:101C0000382E80E0482E87E0F101AE014F5F5F4F34
:101C1000DA01742D0E943A14F70102811381A48025
:101C2000B580E080F18061147104810419F43A01F7
:101C3000F0E88F2E2115310529F4882DB3010E947B
:101C400099139C0117FD04C00217130708F49801AB
:101C50008501682DA301C6010E94450B27960FB68A
:101C6000F894DEBF0FBECDBFDF91CF911F910F91D2
:101C7000FF90EF90DF90CF90BF90AF908F907F90CC
:0A1C80006F904F903F902F90089551
:101C8A00CF92DF92EF926B01E82E61157105810503
:101C9A0009F451C0FB018491E7FC80818695869501
:101CAA00869587704115510509F447C0F6012491BC
:101CBA00E7FC208127702130A1F028F02230F9F0CA
:101CCA00233059F13CC029B330E0B90102C07595FF
:101CDA0067958A95E2F7CB018170FA01808380E0EB
:101CEA002FC026B330E0B90102C0759567958A9571
:101CFA00E2F7CB018170FA01808380E021C023B32F
:101D0A0030E0B90102C0759567958A95E2F7CB0173
:101D1A008170FA01808380E013C020B330E0B901FA
:101D2A0002C0759567958A95E2F7CB018170FA0131
:101D3A00808380E005C081E003C081E001C081E0CA
:081D4A00EF90DF90CF900895A7
:101D5200A2E0B0E0EFEAFEE00C94FC123C014B0181
:101D6200FA01DB0112962D913C91139714964D9036
:101D72005C9015978D919C9111979A838983169601
:101D82002D903C90179737FD03C08D7F9A838983EE
:101D9200008111812281338144815581668177815D
:101DA200FE0131965F018AE0C82ED12C7201C40176
:101DB2000E94030AE980FA80D40118962D913C9181
:101DC200199721503109281B390B820D931DAC0143
:101DD20060E88201C3010E94450B9C01F3018081EE
:101DE200918190FF08C0D40112968D919C91139716
:101DF200821793070CF4C9012296E2E10C94331383
:101E0200AF92BF92CF92DF92EF920F931F93CF9335
:101E1200DF93CDB7DEB760970FB6F894DEBF0FBE83
:101E2200CDBF9F938F9380E191E0A0E0AF939F930A
:101E32008F93CE0101965C019F938F930E94EC13C6
:101E420027E030E043E151E060E080E690E00E946C
:101E520068138AE790E06C0120E8E22E00E610E0C9
:101E620021E042E08E2DB6010E944E13850128E04A
:101E720042E08E2DB6010E944E1381E080939500C0
:101E82000FB6F894DEBF0FBECDBF60960FB6F894C2
:101E9200DEBF0FBECDBFDF91CF911F910F91EF90AB
:0A1EA200DF90CF90BF90AF9008953D
:101EAC006F927F928F92EF92FF920F931F93CF932B
:101EBC00DF93CDB7DEB761970FB6F894DEBF0FBED8
:101ECC00CDBFFE01319651E1DF011D925A95E9F724
:101EDC00A2E0B1E0BA83A9839C838B8377FF09C00E
:101EEC008FE490E090937100809370008FEF9FEFE0
:101EFC0019C03901842E7C01615071097F836E8376
:101F0C009801682DA301CF010E9481134885598542
:101F1C002E813F814217530708F49A01F701E20F13
:101F2C00F31F108261960FB6F894DEBF0FBECDBFC3
:101F3C00DF91CF911F910F91FF90EF908F907F9039
:041F4C006F900895F5
:101F500088249924F401E401B0E49F93AA279A15F8
:101F60008B049C04ED05FE05CF05D007A10798F46E
:101F7000AD2FDC2FCF2FFE2FE92D982C892E982FF7
:101F8000872F762F652F542F432F322F2227B850BB
:101F900031F7BF9127C01B2EBF91BB27220F331FE4
:101FA000441F551F661F771F881F991F881C991C87
:101FB000EE1FFF1FCC1FDD1FAA1FBB1F8A149B042F
:101FC000EC05FD05CE05DF05A007B10748F08A182E
:101FD0009B08EC09FD09CE09DF09A00BB10B2160BC
:101FE0001A94E1F62EF49401AF01BE01CD01000C6C
:021FF000089552
:101FF200CF92DF92EF92DC0190E0292F30E0220FA6
:10200200331F6901032E000CEE086E2DA601465106
:102012005F4F6F4F6A01E62EFA018491E7FC8081DF
:1020220081110DC02F5F3F4F032E000C440B265130
:102032003F4F4F4FF901849147FD808124C0CD90DD
:10204200DD90EC901297F6014491E7FC40818413F5
:1020520015C02F5F3F4F032E000C440B26513F4FFC
:102062004F4FF901949147FD90815FEFC51AD50A50
:10207200E50ACD92DD92EC92129701C09F5F9B30F0
:0E20820008F4BBCF892FEF90DF90CF90089528
:102090000F931F93CF93DF93DB012D913C91119709
:1020A00030FF25C017964D915C91189715962D918C
:1020B0003C9116974217530778F41296ED91FC91D4
:1020C0001397808312962D913C9113972F5F3F4F6A
:1020D00013963C932E93129717962D913C91189737
:1020E0002F5F3F4F18963C932E93179715C01D9660
:1020F000ED91FC911E97309719F48FEF9FEF0CC074
:102100008B01EC010995892BC1F7F8018781908536
:10211000019690878783CE01DF91CF911F910F9118
:02212000089520
:10212200CF939B01482FF901849147FD8081803232
:10213200C9F1682F082E000C770B695071096530C0
:10214200710580F18B3249F5A0E0B0E02F5F3F4F7F
:102152004F4F02C0A0E0B0E080E090E0CAE0F90199
:10216200649147FD6081062E000C770B6053710964
:102172006A30710560F4C89FF001C99FF00D112407
:102182002F5F3F4F4F4FCF01861B970BE8CFAB2BF3
:1021920069F491958195910909C08D32D9F6A1E032
:1021A200B0E0D4CF2F5F3F4F4F4FBDCFCF910895B7
:1021B200CF92DF92EF920F931F93CF93DF936B0136
:1021C200E82EC42F41706E5F7F4F8F4F0E94A4088C
:1021D200082FC1FB442740F98E2DB6016D5F7F4F5A
:1021E2008F4F0E94A408182FC2FB442740F98E2D5E
:1021F200B6016C5F7F4F8F4F0E94A408D82FC3FB9C
:10220200442740F98E2DB6016B5F7F4F8F4F0E949E
:10221200A4081023D1238D23DF91CF911F910F9119
:08222200EF90DF90CF900895CA
:10222A006F927F928F92CF92DF92EF920F931F93CA
:10223A00CF93DF938C016A01E62EE9013A01862EDB
:10224A00620E731E811C37FD8A94C614D704E804F3
:10225A0079F0F6018491E7FC8081B801082E000C20
:10226A00990B0E9448108FEFC81AD80AE80AEDCFD6
:10227A00CE01DF91CF911F910F91EF90DF90CF9018
:08228A008F907F906F90089582
:102292001F920F920FB60F9211242F933F934F93D9
:1022A2005F936F937F938F939F93AF93BF93EF93BC
:1022B200FF938AB78F7B8ABFE0919200F0919300DF
:1022C200309709F00995FF91EF91BF91AF919F91DE
:1022D2008F917F916F915F914F913F912F910F90CD
:0822E2000FBE0F901F9018952C
:1022EA001F920F920FB60F9211242F933F934F9381
:1022FA005F936F937F938F939F93AF93BF93EF9364
:10230A00FF938AB78F778ABFE0919000F09191008E
:10231A00309709F00995FF91EF91BF91AF919F9185
:10232A008F917F916F915F914F913F912F910F9074
:08233A000FBE0F901F901895D3
:10234200CF92DF92EF92CF93611571058105D9F09B
:10235200C42F6B01E82E40E00E94A4084C2F429546
:102362004F708E2DB6010E94D9108E2DB6010E949B
:1023720018134C2F8E2DB6010E94D9108E2DB60146
:102382000E94181301C081E0CF91EF90DF90CF90AF
:022392000895AC
:10239400CF92DF92EF92CF93611571058105D9F049
:1023A400C42F6B01E82E41E00E94A4084C2F4295F3
:1023B4004F708E2DB6010E94D9108E2DB6010E9449
:1023C40018134C2F8E2DB6010E94D9108E2DB601F4
:1023D4000E94181301C081E0CF91EF90DF90CF905D
:0223E40008955A
:1023E6006AE770E080E841E00E94A1111092840043
:1023F600109285001092860010928700109280003D
:102406001092810010928200109283001092970021
:1024160010929600109288001092890010928A00FD
:0E24260010928B001092950010929400089571
:10243400611571058105F9F0423071F018F44130ED
:1024440031F01BC0433069F0443081F016C04FE7CF
:10245400420F0E94A11108954FEB420F0E94A11157
:10246400089543E9420F0E94A111089543ED420FDC
:0E2474000E94A111089581E0089581E008956D
:102482001F93CF93DF930097E1F0EC0110E080E01F
:1024920007C0BE01610F711D80E80E94E0121F5F3C
:1024A2001430B8F310E00AC0612F70E06C5F7F4F08
:1024B2006C0F7D1F80E80E9455091F5F1430A0F346
:0C24C20001C081E0DF91CF911F910895CF
:1024CE00FA0160387105CCF0623871051CF0633882
:1024DE00710599F4A081B1819D012C5F3F4F31832D
:1024EE0020834D915D916D917C91FC0140835183D0
:1024FE006283738381E090E0089580E090E0089518
:10250E006F927F928F92CF92DF92EF923B01882E45
:10251E008AE790E06C0120E8E22E41E08E2DB601B4
:10252E000E94A111A3018E2DB6010E94C312EF903D
:0C253E00DF90CF908F907F906F900895F9
:10254A0097FB10F8169400080F93083098F008507B
:10255A00232F342F452F562F672F782F892F902D11
:10256A00F4CF0594979587957795679557954795ED
:0C257A00379527950A95AAF70F91089550
:10258600CF92DF92EF92CF93DF936B01E82EEA01B1
:10259600672B682B59F080E005C021968E2DB60179
:1025A6000E94CA1148814111F8CF01C081E0DF9134
:0A25B600CF91EF90DF90CF900895D1
:1025C000CF92DF92EF9261157105810581F06B0169
:1025D000E82E0E945509F6014491E7FC408147FB33
:1025E000442740F98E2DB6010E94A40801C081E065
:0825F000EF90DF90CF900895F9
:1025F8002F923F924F925F926F927F928F929F920B
:10260800AF92BF92CF92DF92EF92FF920F931F93F8
:10261800CF93DF93CDB7DEB7CA1BDB0B0FB6F894A9
:08262800DEBF0FBECDBF099417
:10263000CF92DF92EF926B01E82E9FEFC91AD90A71
:10264000E90A41E08E2DB6010E94A40886E08A9531
:10265000F1F700C040E08E2DB6010E94A408EF9073
:06266000DF90CF90089509
:102666002A88398848885F846E847D848C849B841C
:10267600AA84B984C884DF80EE80FD800C811B812A
:10268600AA81B981CE0FD11D0FB6F894DEBF0FBE59
:06269600CDBFED01089527
:10269C00CF92DF92EF920F931F9361157105810515
:1026AC0051F06B01E82E0E941A12A8018E2DB60172
:1026BC000E94C31201C081E01F910F91EF90DF9037
:0426CC00CF9008950E
:1026D000CF92DF92EF926A01E62EDC01280F391FBC
:1026E000A217B30751F0F6014491E7FC40814D93E6
:1026F0004FEFC41AD40AE40AF3CFEF90DF90CF90E3
:0227000008953A
:10270200A2E0B0E0E7E8F3E10C940A138C013A830B
:1027120029839E012F5F3F4F0E949400F801208180
:1027220024FF02C08FEF9FEF2296E4E00C94411346
:10273200CF92DF92EF926B01E82EA82FCB01FC0122
:102742002491A7FD2081222319F00196A11DF7CF24
:0C2752008C199D09EF90DF90CF90089546
:10275E000E946A146AE770E080E841E00E94A111CD
:10276E006AED70E080E00E948712809194008111E2
:0A277E000E94F3110E94A504F8CF99
:1027880097FB072E16F4009407D077FD09D00E9416
:10279800D81307FC05D03EF4909581959F4F089576
:0827A800709561957F4F0895C3
:1027B000AA1BBB1B51E107C0AA1FBB1FA617B70767
:1027C00010F0A61BB70B881F991F5A95A9F7809583
:0827D0009095BC01CD010895B4
:1027D800A0E0B0E0E2EFF3E10C940C139E01265F59
:1027E8003F4F4F81588569858D819E810E9447148E
:0627F800E2E00C94431323
:1027FE006095709580959095309540955095219562
:10280E003F4F4F4F5F4F6F4F7F4F8F4F9F4F0895EB
:10281E001F920F920FB60F9211248F938AB78F7D4E
:0E282E008ABF8F910F900FBE0F901F901895CC
:10283C00CF936AE770E080E80E94120DC82F82E700
:0C284C0090E00E9441128C2BCF91089567
:10285800689401C0E8948F929F92CF93DF930E946F
:0C286800A80FDF91CF919F908F900895F2
:10287400992777FD05C005900D920197E1F708951A
:0A28840001900D920197E1F708950D
:10288E000F931F9389019A01462F6FEF7FE70E94E6
:08289E00560F1F910F910895E0
:1028A6000024A7FD00942A17300540055005600551
:0828B6007005800590050895EE
:1028BE00EC010E94A7140E94A614CE010E94A81437
:0628CE00CE010E94A414DB
:1028D400CF930E941E14C82F0E9495148C2BCF9165
:0228E400089555
:1028E600FC01480F591FE417F50711F06193FBCF60
:0228F600089543
:1028F8009C01215631092A31310510F48F75992729
:02290800089530
:10290A0057FD03C06591759108956191719108957C
:10291A009C01215431092A31310508F48062089555
:0C292A006CE870E080E80E94A80A0895A4
:0829360081E0809394000895F4
:06293E0080E090E0089526
:042944000C940000EF
:042948000E94610088
:02294C000895EC
:02294E000895EA
:022950000895E8
:08295200424A525A222A323A8D
:06295A0041495159616979
:042960009B140003C1
:00000001FF
