:100000000C9430000C9495010C94C1010C94ED01FA
:100010000C9429020C9429020C9429020C942902B4
:100020000C9429020C9429020C9429020C942902A4
:100030000C9429020C9429020C9429020C94290294
:100040000C9469010C9429020C9429020C94290245
:100050000C94290200600067000460006700708053
:1000600011241FBECFE5D8E0DEBFCDBFE4E5F0E050
:1000700040E017C0B591A59135912591059107FDF7
:100080000CC095918591EF01F92FE82F05900D9205
:10009000A217B307D9F7FE0104C01D92A217B30738
:1000A000E1F7E036F40731F70E94EF000C94FC0111
:0400B000F894FFCFF2
:1000B400CF92DF92EF92A82FCB010097A10509F40C
:1000C40087C026B12F7726B96C01EA2E23E0C20E31
:1000D400D11CE11CF6012491E7FC20812F7137B17A
:1000E400307E232B27B94AB3F6015491E7FC5081A3
:1000F40021E030E002C0220F331F5A95E2F7209529
:1001040024232ABB2FB720682FBF26B12F7E26B900
:10011400FC015A2F0E94210270936A0060936900C7
:1001240026B1286026B99C014A2F2A5F3F4F4F4FC2
:10013400F901249147FD208120FF14C026B12062DB
:1001440026B99C014A2F2E5F3F4F4F4FF90124914E
:1001540047FD20812295220F207E30B73F71232B4B
:1001640020BF03C026B12F7D26B99C014A2F2A5FE8
:100174003F4F4F4FF901249147FD208121FF04C0D7
:1001840027B1206227B903C027B12F7D27B99C016D
:100194004A2F2C5F3F4F4F4FF901249147FD208197
:1001A400277036B1387F232B26B90596A11DFC0193
:1001B4008491A7FD80818295880F880F807C97B1F8
:1001C4009F73892B87B986B1806886B980E001C0A6
:0A01D40081E0EF90DF90CF900895D6
:1001DE000E94190260E670E080E80E94070280919A
:1001EE00670090916800880F991F880F991F880FDC
:1001FE00991F892F8695869580936F00873019F405
:10020E008F5F80936F0080E01DC090916F00891703
:10021E0060F495B321E030E0082E02C0220F331FA8
:10022E000A94E2F7292B25BB0CC095B321E030E0F0
:10023E00082E02C0220F331F0A94E2F720952923BD
:10024E0025BB8F5F883008F32FE788E391E02150BC
:0C025E0080409040E1F700C00000BCCFE1
:10026A0061157105810561F14115510559F1A82FF3
:10027A00CB010696A11DFC018491A7FD808181FF17
:10028A0014C085B190E0982F882724B1820F911D60
:10029A00082E892F000C881F990B000C881F991FA4
:1002AA00FA019183808380E0089524B185B190E0BA
:1002BA00982F8827822BFA019183808380E0089502
:0802CA0081E0089581E0089530
:1002D2001F920F920FB60F9211242F933F934F93B9
:1002E2005F936F937F938F939F93AF93BF93EF939C
:1002F200FF9386B18F7E86B9E0916900F0916A0022
:10030200309709F00995FF91EF91BF91AF919F91BD
:100312008F917F916F915F914F913F912F910F90AC
:080322000FBE0F901F9018950B
:10032A001F920F920FB60F9211242F933F934F9360
:10033A005F936F937F938F939F93AF93BF93EF9343
:10034A00FF938AB78F7B8ABFE0916D00F0916E00B0
:10035A00309709F00995FF91EF91BF91AF919F9165
:10036A008F917F916F915F914F913F912F910F9054
:08037A000FBE0F901F901895B3
:100382001F920F920FB60F9211242F933F934F9308
:100392005F936F937F938F939F93AF93BF93EF93EB
:1003A200FF938AB78F778ABFE0916B00F0916C0060
:1003B200309709F00995FF91EF91BF91AF919F910D
:1003C2008F917F916F915F914F913F912F910F90FC
:0803D2000FBE0F901F9018955B
:1003DA001F920F920FB60F9211248F938AB78F7DB7
:0E03EA008ABF8F910F900FBE0F901F90189535
:1003F800EC010E942E020E942D02CE010E942F02C3
:06040800CE010E942B0250
:10040E00672B682B29F086B1806486B980E0089549
:04041E0081E00895DC
:1004220060E670E080E847E650E00E9435010895FA
:1004320060E670E080E80E945A009FEF94BB089546
:1004420057FD03C065917591089561917191089569
:040452000C94000006
:040456000E945800A8
:02045A00089503
:02045C00089501
:02045E000895FF
:07046000110200000301007E
:00000001FF
