:100000000C9433000C9411080C943D080C9469086E
:100010000C94DE0A0C94DE0A0C9459070C94290700
:100020000C94F9060C94C9060C9495080C94C1081C
:100030000C94DE0A0C94DE0A0C94DE0A0C94DE0AA0
:100040000C94E5070C94DE0A0C94DE0A0C94DE0A8C
:100050000C94DE0A006000C48000C400DD0015CAF4
:1000600000DD00EC800011241FBECFE5D8E0DEBF2C
:10007000CDBFE4E5F0E040E017C0B591A591359122
:100080002591059107FD0CC095918591EF01F92F00
:10009000E82F05900D92A217B307D9F7FE0104C00F
:1000A0001D92A217B307E1F7E536F40731F70E9476
:0A00B0008C090C94A90AF894FFCF04
:1000BA0020456E74657220596F7572207061737372
:1000CA00776F7264000020496E636F7272656374A1
:1000DA002050617373776F72640000202020202003
:0B00EA00202057656C636F6D650000FF
:0C00F5003132333435363738392A3023A5
:0501010031323334002F
:10010600CF92DF92EF9261157105810509F4B7C0B0
:100116006B01E82E8EB5887F8EBD8E2DB6010E94AE
:10012600250AAE2DC6010296A11DFC018491A7FDEC
:100136008081811103C01092EB000FC0843021F43E
:1001460081E08093EB0009C08C3021F482E080933B
:10015600EB0003C083E08093EB004E2D96012D5FEC
:100166003F4F4F4FF901849147FD80818295880F5B
:10017600880F807C9FB59F73892B8FBDAE2DC601DE
:100186000496A11DFC018491A7FD80818370982FA0
:100196009295907F8FB58F7C892B8FBDF9018491C5
:1001A60047FD8081882319F081B3806281BBAE2D23
:1001B600C6010496A11DFC018491A7FD80818823B8
:1001C60019F081B3806181BBAE2DC6010696A11DD3
:1001D600FC015A2F0E94B40A7DBD6CBDAE2DC6012E
:1001E6000896A11DFC015A2F0E94B40A7BBD6ABD68
:1001F600AE2DC6010A96A11DFC015A2F0E94B40A13
:1002060079BD68BD8FB780688FBF88B78B7F88BF81
:1002160088B78F7E88BF88B7877F88BF88B78F7D6E
:1002260088BFF6015E2D0E94B40A7093E8006093C1
:10023600E700AE2DC6010296A11DFC018491A7FD23
:100246008081811104C089B7846089BF09C089B7DC
:10025600806189BF89B7886089BF89B7806289BF95
:1002660085E0C80ED11CE11CF6018491E7FC808173
:1002760087709EB5987F892B8EBD80E001C081E096
:08028600EF90DF90CF90089586
:10028E00CF92DF92EF92CF93DF930F92CDB7DEB77F
:10029E0061157105810509F4ABC06B01E82EA82F1D
:1002AE00CB010296A11DFC018491A7FD80818130B6
:1002BE00B1F120F0823009F466C096C08BB78F7B07
:1002CE008BBF8981887F8360877C806183798F77FC
:1002DE008983BE016F5F7F4F80E80E94EE094E2D2D
:1002EE0096012D5F3F4F4F4FF901949147FD90813D
:1002FE00943008F07BC0937025B72C7F922B95BF5E
:10030E00F6015E2D0E94B40A7093E4006093E30040
:10031E009FB790689FBF9BB790649BBF6AC08BB717
:10032E008F778BBF8981887F8360877C88618B798B
:10033E008F778983BE016F5F7F4F80E80E94EE0941
:10034E004E2D96012D5F3F4F4F4FF901949147FD72
:10035E009081943008F04AC09370292F220F220FFB
:10036E0095B7937F922B95BFF6015E2D0E94B40A2E
:10037E007093E2006093E1009FB790689FBF9BB7B8
:10038E0090689BBF36C08BB78F7D8BBF8981887F6E
:10039E008160877C806181798F778983BE016F5FF1
:1003AE007F4F80E80E94EE094E2D96012D5F3F4F44
:1003BE004F4FF901949147FD90812EEF290F223076
:1003CE00A8F424B790FB26F924BFF6015E2D0E94F7
:1003DE00B40A7093E0006093DF009FB790689FBFF0
:1003EE009BB790629BBF05C080E003C081E001C057
:1003FE0081E00F90DF91CF91EF90DF90CF90089535
:10040E00CF92DF92EF926B01E82E61157105810597
:10041E0009F49CC0FB018491E7FC8081869586954A
:10042E0086958770442309F448C0413009F090C086
:10043E00F6012491E7FC208127702130A1F028F0ED
:10044E002230F9F0233059F185C04BB321E030E072
:10045E00B90102C0660F771F8A95E2F7CB01842B94
:10046E008BBB80E07AC048B321E030E0B90102C016
:10047E00660F771F8A95E2F7CB01842B88BB80E04D
:10048E006CC045B321E030E0B90102C0660F771FA2
:10049E008A95E2F7CB01842B85BB80E05EC042B328
:1004AE0021E030E0B90102C0660F771F8A95E2F7AE
:1004BE00CB01842B82BB80E050C0F6012491E7FC77
:1004CE00208127702130A9F028F0223009F1233045
:1004DE0071F142C04BB321E030E0B90102C0660FAA
:1004EE00771F8A95E2F7CB01809584238BBB80E042
:1004FE0034C048B321E030E0B90102C0660F771F67
:10050E008A95E2F7CB018095842388BB80E025C0D5
:10051E0045B321E030E0B90102C0660F771F8A951E
:10052E00E2F7CB018095842385BB80E016C042B3F1
:10053E0021E030E0B90102C0660F771F8A95E2F71D
:10054E00CB018095842382BB80E007C081E005C08B
:10055E0081E003C080E001C080E0EF90DF90CF909B
:02056E000895EE
:100570009B01482F61157105810509F49FC0FB019E
:10058000849147FD80818695869586958770F901CF
:10059000549147FD508156FB662760F956FF45C0D0
:1005A000613009F08DC0252F27702130A1F028F08F
:1005B0002230F9F0233059F185C04AB321E030E010
:1005C000B90102C0660F771F8A95E2F7CB01842B31
:1005D0008ABB80E0089547B321E030E0B90102C052
:1005E000660F771F8A95E2F7CB01842B87BB80E0EB
:1005F000089544B321E030E0B90102C0660F771FCF
:100600008A95E2F7CB01842B84BB80E0089541B347
:1006100021E030E0B90102C0660F771F8A95E2F74A
:10062000CB01842B81BB80E00895F901249147FD23
:10063000208127702130A9F028F0223009F12330E1
:1006400071F142C04AB321E030E0B90102C0660F47
:10065000771F8A95E2F7CB01809584238ABB80E0DF
:10066000089547B321E030E0B90102C0660F771F5B
:100670008A95E2F7CB018095842387BB80E00895BB
:1006800044B321E030E0B90102C0660F771F8A95BC
:10069000E2F7CB018095842384BB80E0089541B3C9
:1006A00021E030E0B90102C0660F771F8A95E2F7BA
:1006B000CB018095842381BB80E0089581E008957B
:0C06C00081E0089580E0089580E0089536
:1006CC00AF92BF92CF92DF92EF92FF920F931F9354
:1006DC00CF93DF9300D000D0CDB7DEB719821A824A
:1006EC001B821C8287ED90E06C0120E8E22EA82E84
:1006FC00BD2CF22E41E08E2DB6010E94ED0823E1B7
:10070C0030E04AEB50E060E080E690E00E945A0A4C
:10071C0000E610E021E041E08E2DB6010E94400A77
:10072C0021E042E08E2DB6010E943F0910E000E06E
:10073C0021C080ED90E00E94B8078091EA008823E8
:10074C0089F04AE26A2D7B2D8F2D0E94160980912B
:10075C00EA00E1E0F0E0EC0FFD1FE00FF11D8083FB
:10076C001F5F0F5F1092EA008FE493EC0197F1F793
:10077C0000C000001430E8F250E037C0852F90E044
:10078C009C01092E000C440B2F5F3E4F4F4FF9017B
:10079C00249147FD2081E1E0F0E0EC0FFD1FE80F14
:1007AC00F91F8081281701F141E08E2DB6010E94BE
:1007BC00ED0823E130E040ED50E060E080E690E0B1
:1007CC000E945A0A00E610E021E041E08E2DB601AD
:1007DC000E94400A9FE724E88EE19150204080401F
:1007EC00E1F700C000007ECF5F5F543038F20F900D
:1007FC000F900F900F90DF91CF911F910F91FF9061
:0C080C00EF90DF90CF90BF90AF90089568
:1008180010C00E94C30A58F00E94BC0A40F029F494
:100828005F3F29F00C94D10A51110C94CB0A0C9417
:10083800DB0A0E94AF0968F39923B1F3552391F3BA
:10084800951B550BBB27AA2762177307840738F037
:100858009F5F5F4F220F331F441FAA1FA9F335D094
:100868000E2E3AF0E0E832D091505040E695001C48
:10087800CAF72BD0FE2F29D0660F771F881FBB1F02
:10088800261737074807AB07B0E809F0BB0B802DE0
:10089800BF01FF2793585F4F3AF09E3F510578F00C
:1008A8000C94D10A0C94CB0A5F3FE4F3983ED4F33E
:1008B800869577956795B795F7959F5FC9F7880FE0
:1008C800911D9695879597F90895E1E0660F771F32
:1008D800881FBB1F621773078407BA0720F0621BC3
:0E08E800730B840BBA0BEE1F88F7E095089592
:1008F600CF92DF92EF92CF9361157105810509F4CE
:1009060059C06B01E82E0E94EE098E2DB6016F5F6D
:100916007F4F8F4F0E94EE09C0E00DC08C2F90E0F4
:1009260002964E2D9601280F391F411D842FB901BD
:100936000E94EE09CF5FC43088F38FE19EE40197F1
:10094600F1F700C0000048E38E2DB6010E94ED08C5
:1009560087E893E10197F1F700C0000048E38E2D88
:10096600B6010E94ED0898EC9A95F1F748E38E2DB2
:10097600B6010E94ED0841E08E2DB6010E94ED08F9
:1009860042E08E2DB6010E94ED0846E08E2DB6019E
:100996000E94ED084CE08E2DB6010E94ED0848E25B
:1009A6008E2DB6010E94ED0840E88E2DB6010E94FC
:1009B600ED0801C081E0CF91EF90DF90CF900895D0
:1009C600CF93DF9300D000D0CDB7DEB719821A825D
:1009D6001B821C82282F30E0A8EEB3E00E949A0A00
:1009E60069837A838B839C8369817A818B819C81DD
:1009F6000E94A50520E030E044E353E40E94D70AB4
:100A06000E94890769837A838B839C8349815A81F3
:100A16006B817C8180ED97E0A0E0B0E0841B950BB4
:100A2600A60BB70B89839A83AB83BC8389819A8192
:100A3600AB81BC8101979BBD8ABD0F900F900F9033
:080A46000F90DF91CF9108959C
:100A4E001F93CF93DF93CDB7DEB72C970FB6F894E5
:100A5E00DEBF0FBECDBF0E94730A182F8EE196E047
:100A6E009A8389831B8283E08C8327E536E03E835D
:100A7E002D8391E09F83888720E936E03A87298786
:100A8E0092E09B878C87BE016F5F7F4F80E80E944C
:100A9E004701BE016B5F7F4F80E80E944701BE0198
:100AAE00675F7F4F80E80E944701812F2C960FB61B
:100ABE00F894DEBF0FBECDBFDF91CF911F91089589
:100ACE00CF93DF93CDB7DEB72C970FB6F894DEBF7A
:100ADE000FBECDBF9CE0E4ECF0E0DE01119601907C
:100AEE000D929A95E1F7882319F0813029F007C00D
:100AFE0082E08C831D8203C082E08D831C82BE0146
:100B0E006F5F7F4F80E80E94830089B78B7F89BF1C
:100B1E0089B7877F89BF89B78F7E89BF89B78F7D58
:100B2E0089BF8FE19EE497BD86BD2C960FB6F894D3
:0C0B3E00DEBF0FBECDBFDF91CF91089548
:100B4A00E89409C097FB3EF490958095709561955D
:100B5A007F4F8F4F9F4F9923A9F0F92F96E9BB2713
:100B6A009395F695879577956795B795F111F8CF8F
:100B7A00FAF4BB0F11F460FF1BC06F5F7F4F8F4FFA
:100B8A009F4F16C0882311F096E911C0772321F0F0
:100B9A009EE8872F762F05C0662371F096E8862F88
:100BAA0070E060E02AF09A95660F771F881FDAF7DF
:0A0BBA00880F9695879597F9089526
:100BC400CF92DF92EF920F931F93CF93DF936B013A
:100BD400E82EC42F41706E5F7F4F8F4F0E94070233
:100BE400082FC1FB442740F98E2DB6016D5F7F4F5E
:100BF4008F4F0E940702182FC2FB442740F98E2D05
:100C0400B6016C5F7F4F8F4F0E940702D82FC3FB42
:100C1400442740F98E2DB6016B5F7F4F8F4F0E94A2
:100C240007021023D1238D23DF91CF911F910F91C0
:080C3400EF90DF90CF900895CE
:100C3C008091E900811134C081E08093E900989B98
:100C4C000AC085EF90E0A0E0FC018491A7FD8081B3
:100C5C008093EA0023C0999B0AC088EF90E0A0E043
:100C6C00FC018491A7FD80818093EA0017C09A9BB8
:100C7C000AC08BEF90E0A0E0FC018491A7FD80817D
:100C8C008093EA000BC09B9B09C08EEF90E0A0E024
:100C9C00FC018491A7FD80818093EA001092E90009
:020CAC000895A9
:100CAE008091E900811134C081E08093E900989B26
:100CBE000AC086EF90E0A0E0FC018491A7FD808140
:100CCE008093EA0023C0999B0AC089EF90E0A0E0D0
:100CDE00FC018491A7FD80818093EA0017C09A9B46
:100CEE000AC08CEF90E0A0E0FC018491A7FD80810A
:100CFE008093EA000BC09B9B09C08FEF90E0A0E0B1
:100D0E00FC018491A7FD80818093EA001092E90096
:020D1E00089536
:100D20008091E900811134C081E08093E900989BB3
:100D30000AC087EF90E0A0E0FC018491A7FD8081CC
:100D40008093EA0023C0999B0AC08AEF90E0A0E05C
:100D5000FC018491A7FD80818093EA0017C09A9BD3
:100D60000AC08DEF90E0A0E0FC018491A7FD808196
:100D70008093EA000BC09B9B09C080E091E0A0E05B
:100D8000FC018491A7FD80818093EA001092E90024
:020D90000895C4
:100D92001F920F920FB60F9211242F933F934F93EE
:100DA2005F936F937F938F939F93AF93BF93EF93D1
:100DB200FF9388B78B7F88BFE091E700F091E8004E
:100DC200309729F08091EB00811101C00995FF91C4
:100DD200EF91BF91AF919F918F917F916F915F91B1
:100DE2004F913F912F910F900FBE0F901F9018952A
:100DF2001F920F920FB60F9211242F933F934F938E
:100E02005F936F937F938F939F93AF93BF93EF9370
:100E1200FF9388B7877F88BFE091E700F091E800F1
:100E2200309729F08091EB00823009F40995FF9107
:100E3200EF91BF91AF919F918F917F916F915F9150
:100E42004F913F912F910F900FBE0F901F901895C9
:100E52001F920F920FB60F9211242F933F934F932D
:100E62005F936F937F938F939F93AF93BF93EF9310
:100E7200FF9388B78F7E88BFE091E700F091E8008A
:100E8200309729F08091EB00813009F40995FF91A8
:100E9200EF91BF91AF919F918F917F916F915F91F0
:100EA2004F913F912F910F900FBE0F901F90189569
:100EB2001F920F920FB60F9211242F933F934F93CD
:100EC2005F936F937F938F939F93AF93BF93EF93B0
:100ED200FF9388B78F7D88BFE091E700F091E8002B
:100EE200309729F08091EB00833009F40995FF9146
:100EF200EF91BF91AF919F918F917F916F915F9190
:100F02004F913F912F910F900FBE0F901F90189508
:100F12000E94B70988F09F5798F0B92F9927B751C7
:100F2200B0F0E1F0660F771F881F991F1AF0BA958B
:100F3200C9F714C0B13091F00E94CA0AB1E0089515
:100F42000C94CA0A672F782F8827B85F39F0B93F07
:100F5200CCF3869577956795B395D9F73EF490953E
:0E0F62008095709561957F4F8F4F9F4F08953A
:100F7000FF920F931F93CF93DF930097F1F08C01B3
:100F8000F12CD0E016C0B8016C0F711D80E840E074
:100F90000E940702D82BCF5F01C0C0E0C43098F395
:100FA000B8016F0D711D80E841E00E940702D82B47
:100FB000F39483E08F1588F701C0D1E08D2FDF9186
:0A0FC000CF911F910F91FF9008954B
:100FCA001F920F920FB60F9211242F933F934F93B4
:100FDA005F936F937F938F939F93AF93BF93EF9397
:100FEA00FF9386B18F7E86B9E091DD00F091DE0035
:100FFA00309709F00995FF91EF91BF91AF919F91B9
:10100A008F917F916F915F914F913F912F910F90A7
:08101A000FBE0F901F90189506
:101022001F920F920FB60F9211242F933F934F935B
:101032005F936F937F938F939F93AF93BF93EF933E
:10104200FF938AB78F7B8ABFE091E300F091E400BF
:10105200309709F00995FF91EF91BF91AF919F9160
:101062008F917F916F915F914F913F912F910F904F
:081072000FBE0F901F901895AE
:10107A001F920F920FB60F9211242F933F934F9303
:10108A005F936F937F938F939F93AF93BF93EF93E6
:10109A00FF938AB78F778ABFE091E100F091E2006F
:1010AA00309709F00995FF91EF91BF91AF919F9108
:1010BA008F917F916F915F914F913F912F910F90F7
:0810CA000FBE0F901F90189556
:1010D2001F920F920FB60F9211242F933F934F93AB
:1010E2005F936F937F938F939F93AF93BF93EF938E
:1010F200FF938AB78F7D8ABFE091DF00F091E00015
:10110200309709F00995FF91EF91BF91AF919F91AF
:101112008F917F916F915F914F913F912F910F909E
:081122000FBE0F901F901895FD
:10112A001F920F920FB60F9211242F933F934F9352
:10113A005F936F937F938F939F93AF93BF93EF9335
:10114A00FF9388B78D7F88BFE091E500F091E600B4
:10115A00309709F00995FF91EF91BF91AF919F9157
:10116A008F917F916F915F914F913F912F910F9046
:08117A000FBE0F901F901895A5
:101182001F920F920FB60F9211242F933F934F93FA
:101192005F936F937F938F939F93AF93BF93EF93DD
:1011A200FF9388B78E7F88BFE091E500F091E6005B
:1011B200309709F00995FF91EF91BF91AF919F91FF
:1011C2008F917F916F915F914F913F912F910F90EE
:0811D2000FBE0F901F9018954D
:1011DA00CF92DF92EF92CF93611571058105D9F015
:1011EA00C42F6B01E82E40E00E9407024C2F429563
:1011FA004F708E2DB6010E94E2058E2DB6010E9417
:10120A000A0A4C2F8E2DB6010E94E2058E2DB601D8
:10121A000E940A0A01C081E0CF91EF90DF90CF903F
:02122A00089525
:10122C00CF92DF92EF92CF93611571058105D9F0C2
:10123C00C42F6B01E82E41E00E9407024C2F42950F
:10124C004F708E2DB6010E94E2058E2DB6010E94C4
:10125C000A0A4C2F8E2DB6010E94E2058E2DB60186
:10126C000E940A0A01C081E0CF91EF90DF90CF90ED
:02127C000895D3
:10127E00611571058105F9F0423071F018F44130B5
:10128E0031F01BC0433069F0443081F016C04FE797
:10129E00420F0E94ED0808954FEB420F0E94ED0899
:1012AE00089543E9420F0E94ED08089543ED420F61
:0E12BE000E94ED08089581E0089581E00895F2
:1012CC001F93CF93DF930097E1F0EC0110E080E0E7
:1012DC0007C0BE01610F711D80E80E94EE091F5FFF
:1012EC001430B8F310E00AC0612F70E06C5F7F4FD0
:1012FC006C0F7D1F80E80E94B8021F5F1330A0F3B3
:0C130C0001C081E0DF91CF911F91089596
:101318000E9427050E94660387ED90E06C0120E893
:10132800E22E41E08E2DB6010E94ED082FE030E05C
:1013380045EE50E060E080E690E00E945A0A00E640
:1013480010E021E041E08E2DB6010E94400A84EBB6
:061358000E94E304FFCF38
:10135E0057FD9058440F551F59F05F3F71F0479558
:10136E00880F97FB991F61F09F3F79F0879508953D
:10137E00121613061406551FF2CF4695F1DF08C05C
:10138E00161617061806991FF1CF86957105610579
:04139E000894089512
:1013A200CF92DF92EF92CF93DF936B01E82EEA01A7
:1013B200672B682B59F080E005C021968E2DB6016F
:1013C2000E94160948814111F8CF01C081E0DF91E6
:0A13D200CF91EF90DF90CF900895C7
:1013DC00CF92DF92EF9261157105810581F06B015F
:1013EC00E82E0E94B802F6014491E7FC408147FBCD
:1013FC00442740F98E2DB6010E94070201C081E0FE
:08140C00EF90DF90CF900895EE
:10141400CF92DF92EF926B01E82E9FEFC91AD90A9F
:10142400E90A41E08E2DB6010E94070286E08A9502
:10143400F1F700C040E08E2DB6010E940702EF9044
:06144400DF90CF90089537
:10144A009FB59B01482F2E5F3F4F4F4FF901849163
:10145A0047FD80818370982B9FBD9EB5F9018491C9
:10146A0047FD8081869586958370880F880F880F3F
:06147A00892B8EBD0895D0
:10148000CF92DF92EF920F931F9361157105810543
:1014900051F06B01E82E0E943F09A8018E2DB60184
:1014A0000E94D10901C081E01F910F91EF90DF9060
:0414B000CF9008953C
:1014B400CF92DF92EF926A01E62EDC01280F391FEA
:1014C400A217B30751F0F6014491E7FC40814D9314
:1014D4004FEFC41AD40AE40AF3CFEF90DF90CF9011
:0214E400089569
:1014E600CF9367ED70E080E80E947B04C82F80ED03
:1014F60090E00E946609C82B80E00E946705C82B11
:0C15060080E00E94E3048C2FCF91089538
:10151200092E0394000C11F4882352F0BB0F40F4FF
:10152200BF2B11F460FF04C06F5F7F4F8F4F9F4F3F
:0215320008951A
:10153400A29FB001B39FC001A39F700D811D112410
:0E154400911DB29F700D811D1124911D0895FF
:10155200EC010E94E30A0E94E20ACE010E94E40A20
:06156200CE010E94E00A28
:1015680057FD03C065917591089561917191089532
:0E15780000240A941616170618060906089590
:0E15860000240A941216130614060506089592
:0E159400E894BB2766277727CB0197F90895C7
:0C15A20097F99F6780E870E060E0089512
:0815AE000E940C040C94890A50
:0615B6009FEF80EC089598
:0415BC000C9400008B
:0415C0000E945B002A
:0215C400089588
:0215C600089586
:0215C800089584
:0C15CA0000000E00000100000000000006
:0715D600424A525A131B1197
:0615DD00414959616971EA
:00000001FF
